{
	"BnB.sol": {
		"Airbnb": {
			"abi": [
				{
					"anonymous": false,
					"inputs": [
						{
							"indexed": false,
							"internalType": "uint256",
							"name": "bookingId",
							"type": "uint256"
						},
						{
							"indexed": false,
							"internalType": "uint256",
							"name": "houseId",
							"type": "uint256"
						},
						{
							"indexed": false,
							"internalType": "address",
							"name": "renter",
							"type": "address"
						}
					],
					"name": "CheckedIn",
					"type": "event"
				},
				{
					"anonymous": false,
					"inputs": [
						{
							"indexed": false,
							"internalType": "uint256",
							"name": "bookingId",
							"type": "uint256"
						},
						{
							"indexed": false,
							"internalType": "uint256",
							"name": "houseId",
							"type": "uint256"
						},
						{
							"indexed": false,
							"internalType": "address",
							"name": "renter",
							"type": "address"
						},
						{
							"indexed": false,
							"internalType": "bool",
							"name": "late",
							"type": "bool"
						}
					],
					"name": "CheckedOut",
					"type": "event"
				},
				{
					"anonymous": false,
					"inputs": [
						{
							"indexed": false,
							"internalType": "uint256",
							"name": "bookingId",
							"type": "uint256"
						},
						{
							"indexed": false,
							"internalType": "uint256",
							"name": "houseId",
							"type": "uint256"
						},
						{
							"indexed": false,
							"internalType": "address",
							"name": "renter",
							"type": "address"
						},
						{
							"indexed": false,
							"internalType": "uint256",
							"name": "startDate",
							"type": "uint256"
						},
						{
							"indexed": false,
							"internalType": "uint256",
							"name": "endDate",
							"type": "uint256"
						}
					],
					"name": "HouseBooked",
					"type": "event"
				},
				{
					"anonymous": false,
					"inputs": [
						{
							"indexed": false,
							"internalType": "uint256",
							"name": "houseId",
							"type": "uint256"
						},
						{
							"indexed": false,
							"internalType": "address",
							"name": "owner",
							"type": "address"
						},
						{
							"indexed": false,
							"internalType": "uint256",
							"name": "pricePerDay",
							"type": "uint256"
						}
					],
					"name": "HouseListed",
					"type": "event"
				},
				{
					"inputs": [
						{
							"internalType": "uint256",
							"name": "houseId",
							"type": "uint256"
						},
						{
							"internalType": "uint256",
							"name": "startDate",
							"type": "uint256"
						},
						{
							"internalType": "uint256",
							"name": "endDate",
							"type": "uint256"
						}
					],
					"name": "bookHouse",
					"outputs": [],
					"stateMutability": "payable",
					"type": "function"
				},
				{
					"inputs": [],
					"name": "bookingCount",
					"outputs": [
						{
							"internalType": "uint256",
							"name": "",
							"type": "uint256"
						}
					],
					"stateMutability": "view",
					"type": "function"
				},
				{
					"inputs": [
						{
							"internalType": "uint256",
							"name": "",
							"type": "uint256"
						}
					],
					"name": "bookings",
					"outputs": [
						{
							"internalType": "uint256",
							"name": "houseId",
							"type": "uint256"
						},
						{
							"internalType": "address",
							"name": "renter",
							"type": "address"
						},
						{
							"internalType": "uint256",
							"name": "startDate",
							"type": "uint256"
						},
						{
							"internalType": "uint256",
							"name": "endDate",
							"type": "uint256"
						},
						{
							"internalType": "bool",
							"name": "isCheckedIn",
							"type": "bool"
						},
						{
							"internalType": "bool",
							"name": "isCheckedOut",
							"type": "bool"
						}
					],
					"stateMutability": "view",
					"type": "function"
				},
				{
					"inputs": [
						{
							"internalType": "uint256",
							"name": "bookingId",
							"type": "uint256"
						}
					],
					"name": "checkIn",
					"outputs": [],
					"stateMutability": "nonpayable",
					"type": "function"
				},
				{
					"inputs": [
						{
							"internalType": "uint256",
							"name": "bookingId",
							"type": "uint256"
						}
					],
					"name": "checkOut",
					"outputs": [],
					"stateMutability": "payable",
					"type": "function"
				},
				{
					"inputs": [],
					"name": "houseCount",
					"outputs": [
						{
							"internalType": "uint256",
							"name": "",
							"type": "uint256"
						}
					],
					"stateMutability": "view",
					"type": "function"
				},
				{
					"inputs": [
						{
							"internalType": "uint256",
							"name": "",
							"type": "uint256"
						}
					],
					"name": "houses",
					"outputs": [
						{
							"internalType": "uint256",
							"name": "id",
							"type": "uint256"
						},
						{
							"internalType": "address payable",
							"name": "owner",
							"type": "address"
						},
						{
							"internalType": "uint256",
							"name": "pricePerDay",
							"type": "uint256"
						},
						{
							"internalType": "bool",
							"name": "isBooked",
							"type": "bool"
						},
						{
							"internalType": "uint256",
							"name": "checkinTime",
							"type": "uint256"
						},
						{
							"internalType": "uint256",
							"name": "checkoutTime",
							"type": "uint256"
						}
					],
					"stateMutability": "view",
					"type": "function"
				},
				{
					"inputs": [],
					"name": "lateCheckoutFine",
					"outputs": [
						{
							"internalType": "uint256",
							"name": "",
							"type": "uint256"
						}
					],
					"stateMutability": "view",
					"type": "function"
				},
				{
					"inputs": [
						{
							"internalType": "uint256",
							"name": "pricePerDay",
							"type": "uint256"
						}
					],
					"name": "listHouse",
					"outputs": [],
					"stateMutability": "nonpayable",
					"type": "function"
				}
			],
			"devdoc": {
				"kind": "dev",
				"methods": {},
				"version": 1
			},
			"evm": {
				"assembly": "    /* \"BnB.sol\":60:2972  contract Airbnb {... */\n  mstore(0x40, 0x80)\n    /* \"BnB.sol\":499:500  0 */\n  0x00\n    /* \"BnB.sol\":471:500  uint256 public houseCount = 0 */\n  dup1\n  sstore\n    /* \"BnB.sol\":537:538  0 */\n  0x00\n    /* \"BnB.sol\":507:538  uint256 public bookingCount = 0 */\n  0x01\n  sstore\n    /* \"BnB.sol\":579:586  1 ether */\n  0x0de0b6b3a7640000\n    /* \"BnB.sol\":545:586  uint256 public lateCheckoutFine = 1 ether */\n  0x02\n  sstore\n    /* \"BnB.sol\":60:2972  contract Airbnb {... */\n  callvalue\n  dup1\n  iszero\n  tag_1\n  jumpi\n  0x00\n  dup1\n  revert\ntag_1:\n  pop\n  dataSize(sub_0)\n  dup1\n  dataOffset(sub_0)\n  0x00\n  codecopy\n  0x00\n  return\nstop\n\nsub_0: assembly {\n        /* \"BnB.sol\":60:2972  contract Airbnb {... */\n      mstore(0x40, 0x80)\n      jumpi(tag_1, lt(calldatasize, 0x04))\n      shr(0xe0, calldataload(0x00))\n      dup1\n      0x6d759172\n      gt\n      tag_11\n      jumpi\n      dup1\n      0x6d759172\n      eq\n      tag_6\n      jumpi\n      dup1\n      0xaeda852f\n      eq\n      tag_7\n      jumpi\n      dup1\n      0xbd74f8b1\n      eq\n      tag_8\n      jumpi\n      dup1\n      0xd668c67b\n      eq\n      tag_9\n      jumpi\n      dup1\n      0xe95a644f\n      eq\n      tag_10\n      jumpi\n      jump(tag_1)\n    tag_11:\n      dup1\n      0x1bd2eeee\n      eq\n      tag_2\n      jumpi\n      dup1\n      0x1dab301e\n      eq\n      tag_3\n      jumpi\n      dup1\n      0x28fb688e\n      eq\n      tag_4\n      jumpi\n      dup1\n      0x29363cdc\n      eq\n      tag_5\n      jumpi\n    tag_1:\n      0x00\n      dup1\n      revert\n        /* \"BnB.sol\":2348:2969  function checkOut(uint256 bookingId) public payable {... */\n    tag_2:\n      tag_12\n      0x04\n      dup1\n      calldatasize\n      sub\n      dup2\n      add\n      swap1\n      tag_13\n      swap2\n      swap1\n      tag_14\n      jump\t// in\n    tag_13:\n      tag_15\n      jump\t// in\n    tag_12:\n      stop\n        /* \"BnB.sol\":641:684  mapping(uint256 => Booking) public bookings */\n    tag_3:\n      callvalue\n      dup1\n      iszero\n      tag_16\n      jumpi\n      0x00\n      dup1\n      revert\n    tag_16:\n      pop\n      tag_17\n      0x04\n      dup1\n      calldatasize\n      sub\n      dup2\n      add\n      swap1\n      tag_18\n      swap2\n      swap1\n      tag_14\n      jump\t// in\n    tag_18:\n      tag_19\n      jump\t// in\n    tag_17:\n      mload(0x40)\n      tag_20\n      swap7\n      swap6\n      swap5\n      swap4\n      swap3\n      swap2\n      swap1\n      tag_21\n      jump\t// in\n    tag_20:\n      mload(0x40)\n      dup1\n      swap2\n      sub\n      swap1\n      return\n        /* \"BnB.sol\":545:586  uint256 public lateCheckoutFine = 1 ether */\n    tag_4:\n      callvalue\n      dup1\n      iszero\n      tag_22\n      jumpi\n      0x00\n      dup1\n      revert\n    tag_22:\n      pop\n      tag_23\n      tag_24\n      jump\t// in\n    tag_23:\n      mload(0x40)\n      tag_25\n      swap2\n      swap1\n      tag_26\n      jump\t// in\n    tag_25:\n      mload(0x40)\n      dup1\n      swap2\n      sub\n      swap1\n      return\n        /* \"BnB.sol\":1044:1282  function listHouse(uint256 pricePerDay) public {... */\n    tag_5:\n      callvalue\n      dup1\n      iszero\n      tag_27\n      jumpi\n      0x00\n      dup1\n      revert\n    tag_27:\n      pop\n      tag_28\n      0x04\n      dup1\n      calldatasize\n      sub\n      dup2\n      add\n      swap1\n      tag_29\n      swap2\n      swap1\n      tag_14\n      jump\t// in\n    tag_29:\n      tag_30\n      jump\t// in\n    tag_28:\n      stop\n        /* \"BnB.sol\":507:538  uint256 public bookingCount = 0 */\n    tag_6:\n      callvalue\n      dup1\n      iszero\n      tag_31\n      jumpi\n      0x00\n      dup1\n      revert\n    tag_31:\n      pop\n      tag_32\n      tag_33\n      jump\t// in\n    tag_32:\n      mload(0x40)\n      tag_34\n      swap2\n      swap1\n      tag_26\n      jump\t// in\n    tag_34:\n      mload(0x40)\n      dup1\n      swap2\n      sub\n      swap1\n      return\n        /* \"BnB.sol\":595:634  mapping(uint256 => House) public houses */\n    tag_7:\n      callvalue\n      dup1\n      iszero\n      tag_35\n      jumpi\n      0x00\n      dup1\n      revert\n    tag_35:\n      pop\n      tag_36\n      0x04\n      dup1\n      calldatasize\n      sub\n      dup2\n      add\n      swap1\n      tag_37\n      swap2\n      swap1\n      tag_14\n      jump\t// in\n    tag_37:\n      tag_38\n      jump\t// in\n    tag_36:\n      mload(0x40)\n      tag_39\n      swap7\n      swap6\n      swap5\n      swap4\n      swap3\n      swap2\n      swap1\n      tag_40\n      jump\t// in\n    tag_39:\n      mload(0x40)\n      dup1\n      swap2\n      sub\n      swap1\n      return\n        /* \"BnB.sol\":471:500  uint256 public houseCount = 0 */\n    tag_8:\n      callvalue\n      dup1\n      iszero\n      tag_41\n      jumpi\n      0x00\n      dup1\n      revert\n    tag_41:\n      pop\n      tag_42\n      tag_43\n      jump\t// in\n    tag_42:\n      mload(0x40)\n      tag_44\n      swap2\n      swap1\n      tag_26\n      jump\t// in\n    tag_44:\n      mload(0x40)\n      dup1\n      swap2\n      sub\n      swap1\n      return\n        /* \"BnB.sol\":1290:1964  function bookHouse(uint256 houseId, uint256 startDate, uint256 endDate) public payable {... */\n    tag_9:\n      tag_45\n      0x04\n      dup1\n      calldatasize\n      sub\n      dup2\n      add\n      swap1\n      tag_46\n      swap2\n      swap1\n      tag_47\n      jump\t// in\n    tag_46:\n      tag_48\n      jump\t// in\n    tag_45:\n      stop\n        /* \"BnB.sol\":1972:2340  function checkIn(uint256 bookingId) public {... */\n    tag_10:\n      callvalue\n      dup1\n      iszero\n      tag_49\n      jumpi\n      0x00\n      dup1\n      revert\n    tag_49:\n      pop\n      tag_50\n      0x04\n      dup1\n      calldatasize\n      sub\n      dup2\n      add\n      swap1\n      tag_51\n      swap2\n      swap1\n      tag_14\n      jump\t// in\n    tag_51:\n      tag_52\n      jump\t// in\n    tag_50:\n      stop\n        /* \"BnB.sol\":2348:2969  function checkOut(uint256 bookingId) public payable {... */\n    tag_15:\n        /* \"BnB.sol\":2411:2434  Booking storage booking */\n      0x00\n        /* \"BnB.sol\":2437:2445  bookings */\n      0x04\n        /* \"BnB.sol\":2437:2456  bookings[bookingId] */\n      0x00\n        /* \"BnB.sol\":2446:2455  bookingId */\n      dup4\n        /* \"BnB.sol\":2437:2456  bookings[bookingId] */\n      dup2\n      mstore\n      0x20\n      add\n      swap1\n      dup2\n      mstore\n      0x20\n      add\n      0x00\n      keccak256\n        /* \"BnB.sol\":2411:2456  Booking storage booking = bookings[bookingId] */\n      swap1\n      pop\n        /* \"BnB.sol\":2494:2501  booking */\n      dup1\n        /* \"BnB.sol\":2494:2509  booking.endDate */\n      0x03\n      add\n      sload\n        /* \"BnB.sol\":2475:2490  block.timestamp */\n      timestamp\n        /* \"BnB.sol\":2475:2509  block.timestamp >= booking.endDate */\n      lt\n      iszero\n        /* \"BnB.sol\":2467:2536  require(block.timestamp >= booking.endDate, \"Too early to check out\") */\n      tag_54\n      jumpi\n      mload(0x40)\n      0x08c379a000000000000000000000000000000000000000000000000000000000\n      dup2\n      mstore\n      0x04\n      add\n      tag_55\n      swap1\n      tag_56\n      jump\t// in\n    tag_55:\n      mload(0x40)\n      dup1\n      swap2\n      sub\n      swap1\n      revert\n    tag_54:\n        /* \"BnB.sol\":2569:2576  booking */\n      dup1\n        /* \"BnB.sol\":2569:2583  booking.renter */\n      0x01\n      add\n      0x00\n      swap1\n      sload\n      swap1\n      0x0100\n      exp\n      swap1\n      div\n      0xffffffffffffffffffffffffffffffffffffffff\n      and\n        /* \"BnB.sol\":2555:2583  msg.sender == booking.renter */\n      0xffffffffffffffffffffffffffffffffffffffff\n      and\n        /* \"BnB.sol\":2555:2565  msg.sender */\n      caller\n        /* \"BnB.sol\":2555:2583  msg.sender == booking.renter */\n      0xffffffffffffffffffffffffffffffffffffffff\n      and\n      eq\n        /* \"BnB.sol\":2547:2613  require(msg.sender == booking.renter, \"Only renter can check out\") */\n      tag_57\n      jumpi\n      mload(0x40)\n      0x08c379a000000000000000000000000000000000000000000000000000000000\n      dup2\n      mstore\n      0x04\n      add\n      tag_58\n      swap1\n      tag_59\n      jump\t// in\n    tag_58:\n      mload(0x40)\n      dup1\n      swap2\n      sub\n      swap1\n      revert\n    tag_57:\n        /* \"BnB.sol\":2626:2637  bool isLate */\n      0x00\n        /* \"BnB.sol\":2658:2665  booking */\n      dup2\n        /* \"BnB.sol\":2658:2673  booking.endDate */\n      0x03\n      add\n      sload\n        /* \"BnB.sol\":2640:2655  block.timestamp */\n      timestamp\n        /* \"BnB.sol\":2640:2673  block.timestamp > booking.endDate */\n      gt\n        /* \"BnB.sol\":2626:2673  bool isLate = block.timestamp > booking.endDate */\n      swap1\n      pop\n        /* \"BnB.sol\":2688:2694  isLate */\n      dup1\n        /* \"BnB.sol\":2684:2795  if (isLate) {... */\n      iszero\n      tag_60\n      jumpi\n        /* \"BnB.sol\":2732:2748  lateCheckoutFine */\n      sload(0x02)\n        /* \"BnB.sol\":2719:2728  msg.value */\n      callvalue\n        /* \"BnB.sol\":2719:2748  msg.value >= lateCheckoutFine */\n      lt\n      iszero\n        /* \"BnB.sol\":2711:2783  require(msg.value >= lateCheckoutFine, \"Late checkout fine is required\") */\n      tag_61\n      jumpi\n      mload(0x40)\n      0x08c379a000000000000000000000000000000000000000000000000000000000\n      dup2\n      mstore\n      0x04\n      add\n      tag_62\n      swap1\n      tag_63\n      jump\t// in\n    tag_62:\n      mload(0x40)\n      dup1\n      swap2\n      sub\n      swap1\n      revert\n    tag_61:\n        /* \"BnB.sol\":2684:2795  if (isLate) {... */\n    tag_60:\n        /* \"BnB.sol\":2830:2834  true */\n      0x01\n        /* \"BnB.sol\":2807:2814  booking */\n      dup3\n        /* \"BnB.sol\":2807:2827  booking.isCheckedOut */\n      0x04\n      add\n      0x01\n        /* \"BnB.sol\":2807:2834  booking.isCheckedOut = true */\n      0x0100\n      exp\n      dup2\n      sload\n      dup2\n      0xff\n      mul\n      not\n      and\n      swap1\n      dup4\n      iszero\n      iszero\n      mul\n      or\n      swap1\n      sstore\n      pop\n        /* \"BnB.sol\":2880:2885  false */\n      0x00\n        /* \"BnB.sol\":2845:2851  houses */\n      0x03\n        /* \"BnB.sol\":2845:2868  houses[booking.houseId] */\n      0x00\n        /* \"BnB.sol\":2852:2859  booking */\n      dup5\n        /* \"BnB.sol\":2852:2867  booking.houseId */\n      0x00\n      add\n      sload\n        /* \"BnB.sol\":2845:2868  houses[booking.houseId] */\n      dup2\n      mstore\n      0x20\n      add\n      swap1\n      dup2\n      mstore\n      0x20\n      add\n      0x00\n      keccak256\n        /* \"BnB.sol\":2845:2877  houses[booking.houseId].isBooked */\n      0x03\n      add\n      0x00\n        /* \"BnB.sol\":2845:2885  houses[booking.houseId].isBooked = false */\n      0x0100\n      exp\n      dup2\n      sload\n      dup2\n      0xff\n      mul\n      not\n      and\n      swap1\n      dup4\n      iszero\n      iszero\n      mul\n      or\n      swap1\n      sstore\n      pop\n        /* \"BnB.sol\":2903:2961  CheckedOut(bookingId, booking.houseId, msg.sender, isLate) */\n      0x9c15021c0cfee72423f93de70bdc0d624c928c6bfab028005e59b0c968b9d06d\n        /* \"BnB.sol\":2914:2923  bookingId */\n      dup4\n        /* \"BnB.sol\":2925:2932  booking */\n      dup4\n        /* \"BnB.sol\":2925:2940  booking.houseId */\n      0x00\n      add\n      sload\n        /* \"BnB.sol\":2942:2952  msg.sender */\n      caller\n        /* \"BnB.sol\":2954:2960  isLate */\n      dup5\n        /* \"BnB.sol\":2903:2961  CheckedOut(bookingId, booking.houseId, msg.sender, isLate) */\n      mload(0x40)\n      tag_64\n      swap5\n      swap4\n      swap3\n      swap2\n      swap1\n      tag_65\n      jump\t// in\n    tag_64:\n      mload(0x40)\n      dup1\n      swap2\n      sub\n      swap1\n      log1\n        /* \"BnB.sol\":2400:2969  {... */\n      pop\n      pop\n        /* \"BnB.sol\":2348:2969  function checkOut(uint256 bookingId) public payable {... */\n      pop\n      jump\t// out\n        /* \"BnB.sol\":641:684  mapping(uint256 => Booking) public bookings */\n    tag_19:\n      mstore(0x20, 0x04)\n      dup1\n      0x00\n      mstore\n      keccak256(0x00, 0x40)\n      0x00\n      swap2\n      pop\n      swap1\n      pop\n      dup1\n      0x00\n      add\n      sload\n      swap1\n      dup1\n      0x01\n      add\n      0x00\n      swap1\n      sload\n      swap1\n      0x0100\n      exp\n      swap1\n      div\n      0xffffffffffffffffffffffffffffffffffffffff\n      and\n      swap1\n      dup1\n      0x02\n      add\n      sload\n      swap1\n      dup1\n      0x03\n      add\n      sload\n      swap1\n      dup1\n      0x04\n      add\n      0x00\n      swap1\n      sload\n      swap1\n      0x0100\n      exp\n      swap1\n      div\n      0xff\n      and\n      swap1\n      dup1\n      0x04\n      add\n      0x01\n      swap1\n      sload\n      swap1\n      0x0100\n      exp\n      swap1\n      div\n      0xff\n      and\n      swap1\n      pop\n      dup7\n      jump\t// out\n        /* \"BnB.sol\":545:586  uint256 public lateCheckoutFine = 1 ether */\n    tag_24:\n      sload(0x02)\n      dup2\n      jump\t// out\n        /* \"BnB.sol\":1044:1282  function listHouse(uint256 pricePerDay) public {... */\n    tag_30:\n        /* \"BnB.sol\":1102:1112  houseCount */\n      0x00\n      dup1\n        /* \"BnB.sol\":1102:1114  houseCount++ */\n      dup2\n      sload\n      dup1\n      swap3\n      swap2\n      swap1\n      tag_67\n      swap1\n      tag_68\n      jump\t// in\n    tag_67:\n      swap2\n      swap1\n      pop\n      sstore\n      pop\n        /* \"BnB.sol\":1146:1210  House(houseCount, payable(msg.sender), pricePerDay, false, 0, 0) */\n      mload(0x40)\n      dup1\n      0xc0\n      add\n      0x40\n      mstore\n      dup1\n        /* \"BnB.sol\":1152:1162  houseCount */\n      sload(0x00)\n        /* \"BnB.sol\":1146:1210  House(houseCount, payable(msg.sender), pricePerDay, false, 0, 0) */\n      dup2\n      mstore\n      0x20\n      add\n        /* \"BnB.sol\":1172:1182  msg.sender */\n      caller\n        /* \"BnB.sol\":1146:1210  House(houseCount, payable(msg.sender), pricePerDay, false, 0, 0) */\n      0xffffffffffffffffffffffffffffffffffffffff\n      and\n      dup2\n      mstore\n      0x20\n      add\n        /* \"BnB.sol\":1185:1196  pricePerDay */\n      dup3\n        /* \"BnB.sol\":1146:1210  House(houseCount, payable(msg.sender), pricePerDay, false, 0, 0) */\n      dup2\n      mstore\n      0x20\n      add\n        /* \"BnB.sol\":1198:1203  false */\n      0x00\n        /* \"BnB.sol\":1146:1210  House(houseCount, payable(msg.sender), pricePerDay, false, 0, 0) */\n      iszero\n      iszero\n      dup2\n      mstore\n      0x20\n      add\n        /* \"BnB.sol\":1205:1206  0 */\n      0x00\n        /* \"BnB.sol\":1146:1210  House(houseCount, payable(msg.sender), pricePerDay, false, 0, 0) */\n      dup2\n      mstore\n      0x20\n      add\n        /* \"BnB.sol\":1208:1209  0 */\n      0x00\n        /* \"BnB.sol\":1146:1210  House(houseCount, payable(msg.sender), pricePerDay, false, 0, 0) */\n      dup2\n      mstore\n      pop\n        /* \"BnB.sol\":1125:1131  houses */\n      0x03\n        /* \"BnB.sol\":1125:1143  houses[houseCount] */\n      0x00\n        /* \"BnB.sol\":1132:1142  houseCount */\n      dup1\n      sload\n        /* \"BnB.sol\":1125:1143  houses[houseCount] */\n      dup2\n      mstore\n      0x20\n      add\n      swap1\n      dup2\n      mstore\n      0x20\n      add\n      0x00\n      keccak256\n        /* \"BnB.sol\":1125:1210  houses[houseCount] = House(houseCount, payable(msg.sender), pricePerDay, false, 0, 0) */\n      0x00\n      dup3\n      add\n      mload\n      dup2\n      0x00\n      add\n      sstore\n      0x20\n      dup3\n      add\n      mload\n      dup2\n      0x01\n      add\n      exp(0x0100, 0x00)\n      dup2\n      sload\n      dup2\n      0xffffffffffffffffffffffffffffffffffffffff\n      mul\n      not\n      and\n      swap1\n      dup4\n      0xffffffffffffffffffffffffffffffffffffffff\n      and\n      mul\n      or\n      swap1\n      sstore\n      pop\n      0x40\n      dup3\n      add\n      mload\n      dup2\n      0x02\n      add\n      sstore\n      0x60\n      dup3\n      add\n      mload\n      dup2\n      0x03\n      add\n      exp(0x0100, 0x00)\n      dup2\n      sload\n      dup2\n      0xff\n      mul\n      not\n      and\n      swap1\n      dup4\n      iszero\n      iszero\n      mul\n      or\n      swap1\n      sstore\n      pop\n      0x80\n      dup3\n      add\n      mload\n      dup2\n      0x04\n      add\n      sstore\n      0xa0\n      dup3\n      add\n      mload\n      dup2\n      0x05\n      add\n      sstore\n      swap1\n      pop\n      pop\n        /* \"BnB.sol\":1226:1274  HouseListed(houseCount, msg.sender, pricePerDay) */\n      0xfb7546692669c78e8126bd1f18c25858a51745cadbe62de4c52c410c4e1c4851\n        /* \"BnB.sol\":1238:1248  houseCount */\n      sload(0x00)\n        /* \"BnB.sol\":1250:1260  msg.sender */\n      caller\n        /* \"BnB.sol\":1262:1273  pricePerDay */\n      dup4\n        /* \"BnB.sol\":1226:1274  HouseListed(houseCount, msg.sender, pricePerDay) */\n      mload(0x40)\n      tag_69\n      swap4\n      swap3\n      swap2\n      swap1\n      tag_70\n      jump\t// in\n    tag_69:\n      mload(0x40)\n      dup1\n      swap2\n      sub\n      swap1\n      log1\n        /* \"BnB.sol\":1044:1282  function listHouse(uint256 pricePerDay) public {... */\n      pop\n      jump\t// out\n        /* \"BnB.sol\":507:538  uint256 public bookingCount = 0 */\n    tag_33:\n      sload(0x01)\n      dup2\n      jump\t// out\n        /* \"BnB.sol\":595:634  mapping(uint256 => House) public houses */\n    tag_38:\n      mstore(0x20, 0x03)\n      dup1\n      0x00\n      mstore\n      keccak256(0x00, 0x40)\n      0x00\n      swap2\n      pop\n      swap1\n      pop\n      dup1\n      0x00\n      add\n      sload\n      swap1\n      dup1\n      0x01\n      add\n      0x00\n      swap1\n      sload\n      swap1\n      0x0100\n      exp\n      swap1\n      div\n      0xffffffffffffffffffffffffffffffffffffffff\n      and\n      swap1\n      dup1\n      0x02\n      add\n      sload\n      swap1\n      dup1\n      0x03\n      add\n      0x00\n      swap1\n      sload\n      swap1\n      0x0100\n      exp\n      swap1\n      div\n      0xff\n      and\n      swap1\n      dup1\n      0x04\n      add\n      sload\n      swap1\n      dup1\n      0x05\n      add\n      sload\n      swap1\n      pop\n      dup7\n      jump\t// out\n        /* \"BnB.sol\":471:500  uint256 public houseCount = 0 */\n    tag_43:\n      sload(0x00)\n      dup2\n      jump\t// out\n        /* \"BnB.sol\":1290:1964  function bookHouse(uint256 houseId, uint256 startDate, uint256 endDate) public payable {... */\n    tag_48:\n        /* \"BnB.sol\":1388:1407  House storage house */\n      0x00\n        /* \"BnB.sol\":1410:1416  houses */\n      0x03\n        /* \"BnB.sol\":1410:1425  houses[houseId] */\n      0x00\n        /* \"BnB.sol\":1417:1424  houseId */\n      dup6\n        /* \"BnB.sol\":1410:1425  houses[houseId] */\n      dup2\n      mstore\n      0x20\n      add\n      swap1\n      dup2\n      mstore\n      0x20\n      add\n      0x00\n      keccak256\n        /* \"BnB.sol\":1388:1425  House storage house = houses[houseId] */\n      swap1\n      pop\n        /* \"BnB.sol\":1445:1450  house */\n      dup1\n        /* \"BnB.sol\":1445:1459  house.isBooked */\n      0x03\n      add\n      0x00\n      swap1\n      sload\n      swap1\n      0x0100\n      exp\n      swap1\n      div\n      0xff\n      and\n        /* \"BnB.sol\":1444:1459  !house.isBooked */\n      iszero\n        /* \"BnB.sol\":1436:1487  require(!house.isBooked, \"House is already booked\") */\n      tag_72\n      jumpi\n      mload(0x40)\n      0x08c379a000000000000000000000000000000000000000000000000000000000\n      dup2\n      mstore\n      0x04\n      add\n      tag_73\n      swap1\n      tag_74\n      jump\t// in\n    tag_73:\n      mload(0x40)\n      dup1\n      swap2\n      sub\n      swap1\n      revert\n    tag_72:\n        /* \"BnB.sol\":1563:1569  1 days */\n      0x015180\n        /* \"BnB.sol\":1550:1559  startDate */\n      dup4\n        /* \"BnB.sol\":1540:1547  endDate */\n      dup4\n        /* \"BnB.sol\":1540:1559  endDate - startDate */\n      tag_75\n      swap2\n      swap1\n      tag_76\n      jump\t// in\n    tag_75:\n        /* \"BnB.sol\":1519:1524  house */\n      dup3\n        /* \"BnB.sol\":1519:1536  house.pricePerDay */\n      0x02\n      add\n      sload\n        /* \"BnB.sol\":1519:1560  house.pricePerDay * (endDate - startDate) */\n      tag_77\n      swap2\n      swap1\n      tag_78\n      jump\t// in\n    tag_77:\n        /* \"BnB.sol\":1519:1569  house.pricePerDay * (endDate - startDate) / 1 days */\n      tag_79\n      swap2\n      swap1\n      tag_80\n      jump\t// in\n    tag_79:\n        /* \"BnB.sol\":1506:1515  msg.value */\n      callvalue\n        /* \"BnB.sol\":1506:1569  msg.value >= house.pricePerDay * (endDate - startDate) / 1 days */\n      lt\n      iszero\n        /* \"BnB.sol\":1498:1594  require(msg.value >= house.pricePerDay * (endDate - startDate) / 1 days, \"Insufficient payment\") */\n      tag_81\n      jumpi\n      mload(0x40)\n      0x08c379a000000000000000000000000000000000000000000000000000000000\n      dup2\n      mstore\n      0x04\n      add\n      tag_82\n      swap1\n      tag_83\n      jump\t// in\n    tag_82:\n      mload(0x40)\n      dup1\n      swap2\n      sub\n      swap1\n      revert\n    tag_81:\n        /* \"BnB.sol\":1607:1619  bookingCount */\n      0x01\n      0x00\n        /* \"BnB.sol\":1607:1621  bookingCount++ */\n      dup2\n      sload\n      dup1\n      swap3\n      swap2\n      swap1\n      tag_84\n      swap1\n      tag_68\n      jump\t// in\n    tag_84:\n      swap2\n      swap1\n      pop\n      sstore\n      pop\n        /* \"BnB.sol\":1657:1719  Booking(houseId, msg.sender, startDate, endDate, false, false) */\n      mload(0x40)\n      dup1\n      0xc0\n      add\n      0x40\n      mstore\n      dup1\n        /* \"BnB.sol\":1665:1672  houseId */\n      dup6\n        /* \"BnB.sol\":1657:1719  Booking(houseId, msg.sender, startDate, endDate, false, false) */\n      dup2\n      mstore\n      0x20\n      add\n        /* \"BnB.sol\":1674:1684  msg.sender */\n      caller\n        /* \"BnB.sol\":1657:1719  Booking(houseId, msg.sender, startDate, endDate, false, false) */\n      0xffffffffffffffffffffffffffffffffffffffff\n      and\n      dup2\n      mstore\n      0x20\n      add\n        /* \"BnB.sol\":1686:1695  startDate */\n      dup5\n        /* \"BnB.sol\":1657:1719  Booking(houseId, msg.sender, startDate, endDate, false, false) */\n      dup2\n      mstore\n      0x20\n      add\n        /* \"BnB.sol\":1697:1704  endDate */\n      dup4\n        /* \"BnB.sol\":1657:1719  Booking(houseId, msg.sender, startDate, endDate, false, false) */\n      dup2\n      mstore\n      0x20\n      add\n        /* \"BnB.sol\":1706:1711  false */\n      0x00\n        /* \"BnB.sol\":1657:1719  Booking(houseId, msg.sender, startDate, endDate, false, false) */\n      iszero\n      iszero\n      dup2\n      mstore\n      0x20\n      add\n        /* \"BnB.sol\":1713:1718  false */\n      0x00\n        /* \"BnB.sol\":1657:1719  Booking(houseId, msg.sender, startDate, endDate, false, false) */\n      iszero\n      iszero\n      dup2\n      mstore\n      pop\n        /* \"BnB.sol\":1632:1640  bookings */\n      0x04\n        /* \"BnB.sol\":1632:1654  bookings[bookingCount] */\n      0x00\n        /* \"BnB.sol\":1641:1653  bookingCount */\n      sload(0x01)\n        /* \"BnB.sol\":1632:1654  bookings[bookingCount] */\n      dup2\n      mstore\n      0x20\n      add\n      swap1\n      dup2\n      mstore\n      0x20\n      add\n      0x00\n      keccak256\n        /* \"BnB.sol\":1632:1719  bookings[bookingCount] = Booking(houseId, msg.sender, startDate, endDate, false, false) */\n      0x00\n      dup3\n      add\n      mload\n      dup2\n      0x00\n      add\n      sstore\n      0x20\n      dup3\n      add\n      mload\n      dup2\n      0x01\n      add\n      exp(0x0100, 0x00)\n      dup2\n      sload\n      dup2\n      0xffffffffffffffffffffffffffffffffffffffff\n      mul\n      not\n      and\n      swap1\n      dup4\n      0xffffffffffffffffffffffffffffffffffffffff\n      and\n      mul\n      or\n      swap1\n      sstore\n      pop\n      0x40\n      dup3\n      add\n      mload\n      dup2\n      0x02\n      add\n      sstore\n      0x60\n      dup3\n      add\n      mload\n      dup2\n      0x03\n      add\n      sstore\n      0x80\n      dup3\n      add\n      mload\n      dup2\n      0x04\n      add\n      exp(0x0100, 0x00)\n      dup2\n      sload\n      dup2\n      0xff\n      mul\n      not\n      and\n      swap1\n      dup4\n      iszero\n      iszero\n      mul\n      or\n      swap1\n      sstore\n      pop\n      0xa0\n      dup3\n      add\n      mload\n      dup2\n      0x04\n      add\n      exp(0x0100, 0x01)\n      dup2\n      sload\n      dup2\n      0xff\n      mul\n      not\n      and\n      swap1\n      dup4\n      iszero\n      iszero\n      mul\n      or\n      swap1\n      sstore\n      pop\n      swap1\n      pop\n      pop\n        /* \"BnB.sol\":1747:1751  true */\n      0x01\n        /* \"BnB.sol\":1730:1735  house */\n      dup2\n        /* \"BnB.sol\":1730:1744  house.isBooked */\n      0x03\n      add\n      0x00\n        /* \"BnB.sol\":1730:1751  house.isBooked = true */\n      0x0100\n      exp\n      dup2\n      sload\n      dup2\n      0xff\n      mul\n      not\n      and\n      swap1\n      dup4\n      iszero\n      iszero\n      mul\n      or\n      swap1\n      sstore\n      pop\n        /* \"BnB.sol\":1782:1791  startDate */\n      dup3\n        /* \"BnB.sol\":1762:1767  house */\n      dup2\n        /* \"BnB.sol\":1762:1779  house.checkinTime */\n      0x04\n      add\n        /* \"BnB.sol\":1762:1791  house.checkinTime = startDate */\n      dup2\n      swap1\n      sstore\n      pop\n        /* \"BnB.sol\":1823:1830  endDate */\n      dup2\n        /* \"BnB.sol\":1802:1807  house */\n      dup2\n        /* \"BnB.sol\":1802:1820  house.checkoutTime */\n      0x05\n      add\n        /* \"BnB.sol\":1802:1830  house.checkoutTime = endDate */\n      dup2\n      swap1\n      sstore\n      pop\n        /* \"BnB.sol\":1841:1846  house */\n      dup1\n        /* \"BnB.sol\":1841:1852  house.owner */\n      0x01\n      add\n      0x00\n      swap1\n      sload\n      swap1\n      0x0100\n      exp\n      swap1\n      div\n      0xffffffffffffffffffffffffffffffffffffffff\n      and\n        /* \"BnB.sol\":1841:1861  house.owner.transfer */\n      0xffffffffffffffffffffffffffffffffffffffff\n      and\n        /* \"BnB.sol\":1841:1872  house.owner.transfer(msg.value) */\n      0x08fc\n        /* \"BnB.sol\":1862:1871  msg.value */\n      callvalue\n        /* \"BnB.sol\":1841:1872  house.owner.transfer(msg.value) */\n      swap1\n      dup2\n      iszero\n      mul\n      swap1\n      mload(0x40)\n      0x00\n      mload(0x40)\n      dup1\n      dup4\n      sub\n      dup2\n      dup6\n      dup9\n      dup9\n      call\n      swap4\n      pop\n      pop\n      pop\n      pop\n      iszero\n      dup1\n      iszero\n      tag_86\n      jumpi\n      returndatasize\n      0x00\n      dup1\n      returndatacopy\n      revert(0x00, returndatasize)\n    tag_86:\n      pop\n        /* \"BnB.sol\":1890:1956  HouseBooked(bookingCount, houseId, msg.sender, startDate, endDate) */\n      0x0e47d3c268f587e43ffa5940b3b439d9d2812238e799cb640f517d54ae2074c6\n        /* \"BnB.sol\":1902:1914  bookingCount */\n      sload(0x01)\n        /* \"BnB.sol\":1916:1923  houseId */\n      dup6\n        /* \"BnB.sol\":1925:1935  msg.sender */\n      caller\n        /* \"BnB.sol\":1937:1946  startDate */\n      dup7\n        /* \"BnB.sol\":1948:1955  endDate */\n      dup7\n        /* \"BnB.sol\":1890:1956  HouseBooked(bookingCount, houseId, msg.sender, startDate, endDate) */\n      mload(0x40)\n      tag_87\n      swap6\n      swap5\n      swap4\n      swap3\n      swap2\n      swap1\n      tag_88\n      jump\t// in\n    tag_87:\n      mload(0x40)\n      dup1\n      swap2\n      sub\n      swap1\n      log1\n        /* \"BnB.sol\":1377:1964  {... */\n      pop\n        /* \"BnB.sol\":1290:1964  function bookHouse(uint256 houseId, uint256 startDate, uint256 endDate) public payable {... */\n      pop\n      pop\n      pop\n      jump\t// out\n        /* \"BnB.sol\":1972:2340  function checkIn(uint256 bookingId) public {... */\n    tag_52:\n        /* \"BnB.sol\":2026:2049  Booking storage booking */\n      0x00\n        /* \"BnB.sol\":2052:2060  bookings */\n      0x04\n        /* \"BnB.sol\":2052:2071  bookings[bookingId] */\n      0x00\n        /* \"BnB.sol\":2061:2070  bookingId */\n      dup4\n        /* \"BnB.sol\":2052:2071  bookings[bookingId] */\n      dup2\n      mstore\n      0x20\n      add\n      swap1\n      dup2\n      mstore\n      0x20\n      add\n      0x00\n      keccak256\n        /* \"BnB.sol\":2026:2071  Booking storage booking = bookings[bookingId] */\n      swap1\n      pop\n        /* \"BnB.sol\":2109:2116  booking */\n      dup1\n        /* \"BnB.sol\":2109:2126  booking.startDate */\n      0x02\n      add\n      sload\n        /* \"BnB.sol\":2090:2105  block.timestamp */\n      timestamp\n        /* \"BnB.sol\":2090:2126  block.timestamp >= booking.startDate */\n      lt\n      iszero\n        /* \"BnB.sol\":2082:2152  require(block.timestamp >= booking.startDate, \"Too early to check in\") */\n      tag_90\n      jumpi\n      mload(0x40)\n      0x08c379a000000000000000000000000000000000000000000000000000000000\n      dup2\n      mstore\n      0x04\n      add\n      tag_91\n      swap1\n      tag_92\n      jump\t// in\n    tag_91:\n      mload(0x40)\n      dup1\n      swap2\n      sub\n      swap1\n      revert\n    tag_90:\n        /* \"BnB.sol\":2185:2192  booking */\n      dup1\n        /* \"BnB.sol\":2185:2199  booking.renter */\n      0x01\n      add\n      0x00\n      swap1\n      sload\n      swap1\n      0x0100\n      exp\n      swap1\n      div\n      0xffffffffffffffffffffffffffffffffffffffff\n      and\n        /* \"BnB.sol\":2171:2199  msg.sender == booking.renter */\n      0xffffffffffffffffffffffffffffffffffffffff\n      and\n        /* \"BnB.sol\":2171:2181  msg.sender */\n      caller\n        /* \"BnB.sol\":2171:2199  msg.sender == booking.renter */\n      0xffffffffffffffffffffffffffffffffffffffff\n      and\n      eq\n        /* \"BnB.sol\":2163:2228  require(msg.sender == booking.renter, \"Only renter can check in\") */\n      tag_93\n      jumpi\n      mload(0x40)\n      0x08c379a000000000000000000000000000000000000000000000000000000000\n      dup2\n      mstore\n      0x04\n      add\n      tag_94\n      swap1\n      tag_95\n      jump\t// in\n    tag_94:\n      mload(0x40)\n      dup1\n      swap2\n      sub\n      swap1\n      revert\n    tag_93:\n        /* \"BnB.sol\":2263:2267  true */\n      0x01\n        /* \"BnB.sol\":2241:2248  booking */\n      dup2\n        /* \"BnB.sol\":2241:2260  booking.isCheckedIn */\n      0x04\n      add\n      0x00\n        /* \"BnB.sol\":2241:2267  booking.isCheckedIn = true */\n      0x0100\n      exp\n      dup2\n      sload\n      dup2\n      0xff\n      mul\n      not\n      and\n      swap1\n      dup4\n      iszero\n      iszero\n      mul\n      or\n      swap1\n      sstore\n      pop\n        /* \"BnB.sol\":2283:2332  CheckedIn(bookingId, booking.houseId, msg.sender) */\n      0x957a7d05a0db579961310818480bc052bb358945e846c0948c1e0691cf43dc44\n        /* \"BnB.sol\":2293:2302  bookingId */\n      dup3\n        /* \"BnB.sol\":2304:2311  booking */\n      dup3\n        /* \"BnB.sol\":2304:2319  booking.houseId */\n      0x00\n      add\n      sload\n        /* \"BnB.sol\":2321:2331  msg.sender */\n      caller\n        /* \"BnB.sol\":2283:2332  CheckedIn(bookingId, booking.houseId, msg.sender) */\n      mload(0x40)\n      tag_96\n      swap4\n      swap3\n      swap2\n      swap1\n      tag_97\n      jump\t// in\n    tag_96:\n      mload(0x40)\n      dup1\n      swap2\n      sub\n      swap1\n      log1\n        /* \"BnB.sol\":2015:2340  {... */\n      pop\n        /* \"BnB.sol\":1972:2340  function checkIn(uint256 bookingId) public {... */\n      pop\n      jump\t// out\n        /* \"#utility.yul\":88:205   */\n    tag_99:\n        /* \"#utility.yul\":197:198   */\n      0x00\n        /* \"#utility.yul\":194:195   */\n      dup1\n        /* \"#utility.yul\":187:199   */\n      revert\n        /* \"#utility.yul\":334:411   */\n    tag_101:\n        /* \"#utility.yul\":371:378   */\n      0x00\n        /* \"#utility.yul\":400:405   */\n      dup2\n        /* \"#utility.yul\":389:405   */\n      swap1\n      pop\n        /* \"#utility.yul\":334:411   */\n      swap2\n      swap1\n      pop\n      jump\t// out\n        /* \"#utility.yul\":417:539   */\n    tag_102:\n        /* \"#utility.yul\":490:514   */\n      tag_135\n        /* \"#utility.yul\":508:513   */\n      dup2\n        /* \"#utility.yul\":490:514   */\n      tag_101\n      jump\t// in\n    tag_135:\n        /* \"#utility.yul\":483:488   */\n      dup2\n        /* \"#utility.yul\":480:515   */\n      eq\n        /* \"#utility.yul\":470:533   */\n      tag_136\n      jumpi\n        /* \"#utility.yul\":529:530   */\n      0x00\n        /* \"#utility.yul\":526:527   */\n      dup1\n        /* \"#utility.yul\":519:531   */\n      revert\n        /* \"#utility.yul\":470:533   */\n    tag_136:\n        /* \"#utility.yul\":417:539   */\n      pop\n      jump\t// out\n        /* \"#utility.yul\":545:684   */\n    tag_103:\n        /* \"#utility.yul\":591:596   */\n      0x00\n        /* \"#utility.yul\":629:635   */\n      dup2\n        /* \"#utility.yul\":616:636   */\n      calldataload\n        /* \"#utility.yul\":607:636   */\n      swap1\n      pop\n        /* \"#utility.yul\":645:678   */\n      tag_138\n        /* \"#utility.yul\":672:677   */\n      dup2\n        /* \"#utility.yul\":645:678   */\n      tag_102\n      jump\t// in\n    tag_138:\n        /* \"#utility.yul\":545:684   */\n      swap3\n      swap2\n      pop\n      pop\n      jump\t// out\n        /* \"#utility.yul\":690:1019   */\n    tag_14:\n        /* \"#utility.yul\":749:755   */\n      0x00\n        /* \"#utility.yul\":798:800   */\n      0x20\n        /* \"#utility.yul\":786:795   */\n      dup3\n        /* \"#utility.yul\":777:784   */\n      dup5\n        /* \"#utility.yul\":773:796   */\n      sub\n        /* \"#utility.yul\":769:801   */\n      slt\n        /* \"#utility.yul\":766:885   */\n      iszero\n      tag_140\n      jumpi\n        /* \"#utility.yul\":804:883   */\n      tag_141\n      tag_99\n      jump\t// in\n    tag_141:\n        /* \"#utility.yul\":766:885   */\n    tag_140:\n        /* \"#utility.yul\":924:925   */\n      0x00\n        /* \"#utility.yul\":949:1002   */\n      tag_142\n        /* \"#utility.yul\":994:1001   */\n      dup5\n        /* \"#utility.yul\":985:991   */\n      dup3\n        /* \"#utility.yul\":974:983   */\n      dup6\n        /* \"#utility.yul\":970:992   */\n      add\n        /* \"#utility.yul\":949:1002   */\n      tag_103\n      jump\t// in\n    tag_142:\n        /* \"#utility.yul\":939:1002   */\n      swap2\n      pop\n        /* \"#utility.yul\":895:1012   */\n      pop\n        /* \"#utility.yul\":690:1019   */\n      swap3\n      swap2\n      pop\n      pop\n      jump\t// out\n        /* \"#utility.yul\":1025:1143   */\n    tag_104:\n        /* \"#utility.yul\":1112:1136   */\n      tag_144\n        /* \"#utility.yul\":1130:1135   */\n      dup2\n        /* \"#utility.yul\":1112:1136   */\n      tag_101\n      jump\t// in\n    tag_144:\n        /* \"#utility.yul\":1107:1110   */\n      dup3\n        /* \"#utility.yul\":1100:1137   */\n      mstore\n        /* \"#utility.yul\":1025:1143   */\n      pop\n      pop\n      jump\t// out\n        /* \"#utility.yul\":1149:1275   */\n    tag_105:\n        /* \"#utility.yul\":1186:1193   */\n      0x00\n        /* \"#utility.yul\":1226:1268   */\n      0xffffffffffffffffffffffffffffffffffffffff\n        /* \"#utility.yul\":1219:1224   */\n      dup3\n        /* \"#utility.yul\":1215:1269   */\n      and\n        /* \"#utility.yul\":1204:1269   */\n      swap1\n      pop\n        /* \"#utility.yul\":1149:1275   */\n      swap2\n      swap1\n      pop\n      jump\t// out\n        /* \"#utility.yul\":1281:1377   */\n    tag_106:\n        /* \"#utility.yul\":1318:1325   */\n      0x00\n        /* \"#utility.yul\":1347:1371   */\n      tag_147\n        /* \"#utility.yul\":1365:1370   */\n      dup3\n        /* \"#utility.yul\":1347:1371   */\n      tag_105\n      jump\t// in\n    tag_147:\n        /* \"#utility.yul\":1336:1371   */\n      swap1\n      pop\n        /* \"#utility.yul\":1281:1377   */\n      swap2\n      swap1\n      pop\n      jump\t// out\n        /* \"#utility.yul\":1383:1501   */\n    tag_107:\n        /* \"#utility.yul\":1470:1494   */\n      tag_149\n        /* \"#utility.yul\":1488:1493   */\n      dup2\n        /* \"#utility.yul\":1470:1494   */\n      tag_106\n      jump\t// in\n    tag_149:\n        /* \"#utility.yul\":1465:1468   */\n      dup3\n        /* \"#utility.yul\":1458:1495   */\n      mstore\n        /* \"#utility.yul\":1383:1501   */\n      pop\n      pop\n      jump\t// out\n        /* \"#utility.yul\":1507:1597   */\n    tag_108:\n        /* \"#utility.yul\":1541:1548   */\n      0x00\n        /* \"#utility.yul\":1584:1589   */\n      dup2\n        /* \"#utility.yul\":1577:1590   */\n      iszero\n        /* \"#utility.yul\":1570:1591   */\n      iszero\n        /* \"#utility.yul\":1559:1591   */\n      swap1\n      pop\n        /* \"#utility.yul\":1507:1597   */\n      swap2\n      swap1\n      pop\n      jump\t// out\n        /* \"#utility.yul\":1603:1712   */\n    tag_109:\n        /* \"#utility.yul\":1684:1705   */\n      tag_152\n        /* \"#utility.yul\":1699:1704   */\n      dup2\n        /* \"#utility.yul\":1684:1705   */\n      tag_108\n      jump\t// in\n    tag_152:\n        /* \"#utility.yul\":1679:1682   */\n      dup3\n        /* \"#utility.yul\":1672:1706   */\n      mstore\n        /* \"#utility.yul\":1603:1712   */\n      pop\n      pop\n      jump\t// out\n        /* \"#utility.yul\":1718:2469   */\n    tag_21:\n        /* \"#utility.yul\":1939:1943   */\n      0x00\n        /* \"#utility.yul\":1977:1980   */\n      0xc0\n        /* \"#utility.yul\":1966:1975   */\n      dup3\n        /* \"#utility.yul\":1962:1981   */\n      add\n        /* \"#utility.yul\":1954:1981   */\n      swap1\n      pop\n        /* \"#utility.yul\":1991:2062   */\n      tag_154\n        /* \"#utility.yul\":2059:2060   */\n      0x00\n        /* \"#utility.yul\":2048:2057   */\n      dup4\n        /* \"#utility.yul\":2044:2061   */\n      add\n        /* \"#utility.yul\":2035:2041   */\n      dup10\n        /* \"#utility.yul\":1991:2062   */\n      tag_104\n      jump\t// in\n    tag_154:\n        /* \"#utility.yul\":2072:2144   */\n      tag_155\n        /* \"#utility.yul\":2140:2142   */\n      0x20\n        /* \"#utility.yul\":2129:2138   */\n      dup4\n        /* \"#utility.yul\":2125:2143   */\n      add\n        /* \"#utility.yul\":2116:2122   */\n      dup9\n        /* \"#utility.yul\":2072:2144   */\n      tag_107\n      jump\t// in\n    tag_155:\n        /* \"#utility.yul\":2154:2226   */\n      tag_156\n        /* \"#utility.yul\":2222:2224   */\n      0x40\n        /* \"#utility.yul\":2211:2220   */\n      dup4\n        /* \"#utility.yul\":2207:2225   */\n      add\n        /* \"#utility.yul\":2198:2204   */\n      dup8\n        /* \"#utility.yul\":2154:2226   */\n      tag_104\n      jump\t// in\n    tag_156:\n        /* \"#utility.yul\":2236:2308   */\n      tag_157\n        /* \"#utility.yul\":2304:2306   */\n      0x60\n        /* \"#utility.yul\":2293:2302   */\n      dup4\n        /* \"#utility.yul\":2289:2307   */\n      add\n        /* \"#utility.yul\":2280:2286   */\n      dup7\n        /* \"#utility.yul\":2236:2308   */\n      tag_104\n      jump\t// in\n    tag_157:\n        /* \"#utility.yul\":2318:2385   */\n      tag_158\n        /* \"#utility.yul\":2380:2383   */\n      0x80\n        /* \"#utility.yul\":2369:2378   */\n      dup4\n        /* \"#utility.yul\":2365:2384   */\n      add\n        /* \"#utility.yul\":2356:2362   */\n      dup6\n        /* \"#utility.yul\":2318:2385   */\n      tag_109\n      jump\t// in\n    tag_158:\n        /* \"#utility.yul\":2395:2462   */\n      tag_159\n        /* \"#utility.yul\":2457:2460   */\n      0xa0\n        /* \"#utility.yul\":2446:2455   */\n      dup4\n        /* \"#utility.yul\":2442:2461   */\n      add\n        /* \"#utility.yul\":2433:2439   */\n      dup5\n        /* \"#utility.yul\":2395:2462   */\n      tag_109\n      jump\t// in\n    tag_159:\n        /* \"#utility.yul\":1718:2469   */\n      swap8\n      swap7\n      pop\n      pop\n      pop\n      pop\n      pop\n      pop\n      pop\n      jump\t// out\n        /* \"#utility.yul\":2475:2697   */\n    tag_26:\n        /* \"#utility.yul\":2568:2572   */\n      0x00\n        /* \"#utility.yul\":2606:2608   */\n      0x20\n        /* \"#utility.yul\":2595:2604   */\n      dup3\n        /* \"#utility.yul\":2591:2609   */\n      add\n        /* \"#utility.yul\":2583:2609   */\n      swap1\n      pop\n        /* \"#utility.yul\":2619:2690   */\n      tag_161\n        /* \"#utility.yul\":2687:2688   */\n      0x00\n        /* \"#utility.yul\":2676:2685   */\n      dup4\n        /* \"#utility.yul\":2672:2689   */\n      add\n        /* \"#utility.yul\":2663:2669   */\n      dup5\n        /* \"#utility.yul\":2619:2690   */\n      tag_104\n      jump\t// in\n    tag_161:\n        /* \"#utility.yul\":2475:2697   */\n      swap3\n      swap2\n      pop\n      pop\n      jump\t// out\n        /* \"#utility.yul\":2703:2807   */\n    tag_110:\n        /* \"#utility.yul\":2748:2755   */\n      0x00\n        /* \"#utility.yul\":2777:2801   */\n      tag_163\n        /* \"#utility.yul\":2795:2800   */\n      dup3\n        /* \"#utility.yul\":2777:2801   */\n      tag_105\n      jump\t// in\n    tag_163:\n        /* \"#utility.yul\":2766:2801   */\n      swap1\n      pop\n        /* \"#utility.yul\":2703:2807   */\n      swap2\n      swap1\n      pop\n      jump\t// out\n        /* \"#utility.yul\":2813:2955   */\n    tag_111:\n        /* \"#utility.yul\":2916:2948   */\n      tag_165\n        /* \"#utility.yul\":2942:2947   */\n      dup2\n        /* \"#utility.yul\":2916:2948   */\n      tag_110\n      jump\t// in\n    tag_165:\n        /* \"#utility.yul\":2911:2914   */\n      dup3\n        /* \"#utility.yul\":2904:2949   */\n      mstore\n        /* \"#utility.yul\":2813:2955   */\n      pop\n      pop\n      jump\t// out\n        /* \"#utility.yul\":2961:3756   */\n    tag_40:\n        /* \"#utility.yul\":3204:3208   */\n      0x00\n        /* \"#utility.yul\":3242:3245   */\n      0xc0\n        /* \"#utility.yul\":3231:3240   */\n      dup3\n        /* \"#utility.yul\":3227:3246   */\n      add\n        /* \"#utility.yul\":3219:3246   */\n      swap1\n      pop\n        /* \"#utility.yul\":3256:3327   */\n      tag_167\n        /* \"#utility.yul\":3324:3325   */\n      0x00\n        /* \"#utility.yul\":3313:3322   */\n      dup4\n        /* \"#utility.yul\":3309:3326   */\n      add\n        /* \"#utility.yul\":3300:3306   */\n      dup10\n        /* \"#utility.yul\":3256:3327   */\n      tag_104\n      jump\t// in\n    tag_167:\n        /* \"#utility.yul\":3337:3425   */\n      tag_168\n        /* \"#utility.yul\":3421:3423   */\n      0x20\n        /* \"#utility.yul\":3410:3419   */\n      dup4\n        /* \"#utility.yul\":3406:3424   */\n      add\n        /* \"#utility.yul\":3397:3403   */\n      dup9\n        /* \"#utility.yul\":3337:3425   */\n      tag_111\n      jump\t// in\n    tag_168:\n        /* \"#utility.yul\":3435:3507   */\n      tag_169\n        /* \"#utility.yul\":3503:3505   */\n      0x40\n        /* \"#utility.yul\":3492:3501   */\n      dup4\n        /* \"#utility.yul\":3488:3506   */\n      add\n        /* \"#utility.yul\":3479:3485   */\n      dup8\n        /* \"#utility.yul\":3435:3507   */\n      tag_104\n      jump\t// in\n    tag_169:\n        /* \"#utility.yul\":3517:3583   */\n      tag_170\n        /* \"#utility.yul\":3579:3581   */\n      0x60\n        /* \"#utility.yul\":3568:3577   */\n      dup4\n        /* \"#utility.yul\":3564:3582   */\n      add\n        /* \"#utility.yul\":3555:3561   */\n      dup7\n        /* \"#utility.yul\":3517:3583   */\n      tag_109\n      jump\t// in\n    tag_170:\n        /* \"#utility.yul\":3593:3666   */\n      tag_171\n        /* \"#utility.yul\":3661:3664   */\n      0x80\n        /* \"#utility.yul\":3650:3659   */\n      dup4\n        /* \"#utility.yul\":3646:3665   */\n      add\n        /* \"#utility.yul\":3637:3643   */\n      dup6\n        /* \"#utility.yul\":3593:3666   */\n      tag_104\n      jump\t// in\n    tag_171:\n        /* \"#utility.yul\":3676:3749   */\n      tag_172\n        /* \"#utility.yul\":3744:3747   */\n      0xa0\n        /* \"#utility.yul\":3733:3742   */\n      dup4\n        /* \"#utility.yul\":3729:3748   */\n      add\n        /* \"#utility.yul\":3720:3726   */\n      dup5\n        /* \"#utility.yul\":3676:3749   */\n      tag_104\n      jump\t// in\n    tag_172:\n        /* \"#utility.yul\":2961:3756   */\n      swap8\n      swap7\n      pop\n      pop\n      pop\n      pop\n      pop\n      pop\n      pop\n      jump\t// out\n        /* \"#utility.yul\":3762:4381   */\n    tag_47:\n        /* \"#utility.yul\":3839:3845   */\n      0x00\n        /* \"#utility.yul\":3847:3853   */\n      dup1\n        /* \"#utility.yul\":3855:3861   */\n      0x00\n        /* \"#utility.yul\":3904:3906   */\n      0x60\n        /* \"#utility.yul\":3892:3901   */\n      dup5\n        /* \"#utility.yul\":3883:3890   */\n      dup7\n        /* \"#utility.yul\":3879:3902   */\n      sub\n        /* \"#utility.yul\":3875:3907   */\n      slt\n        /* \"#utility.yul\":3872:3991   */\n      iszero\n      tag_174\n      jumpi\n        /* \"#utility.yul\":3910:3989   */\n      tag_175\n      tag_99\n      jump\t// in\n    tag_175:\n        /* \"#utility.yul\":3872:3991   */\n    tag_174:\n        /* \"#utility.yul\":4030:4031   */\n      0x00\n        /* \"#utility.yul\":4055:4108   */\n      tag_176\n        /* \"#utility.yul\":4100:4107   */\n      dup7\n        /* \"#utility.yul\":4091:4097   */\n      dup3\n        /* \"#utility.yul\":4080:4089   */\n      dup8\n        /* \"#utility.yul\":4076:4098   */\n      add\n        /* \"#utility.yul\":4055:4108   */\n      tag_103\n      jump\t// in\n    tag_176:\n        /* \"#utility.yul\":4045:4108   */\n      swap4\n      pop\n        /* \"#utility.yul\":4001:4118   */\n      pop\n        /* \"#utility.yul\":4157:4159   */\n      0x20\n        /* \"#utility.yul\":4183:4236   */\n      tag_177\n        /* \"#utility.yul\":4228:4235   */\n      dup7\n        /* \"#utility.yul\":4219:4225   */\n      dup3\n        /* \"#utility.yul\":4208:4217   */\n      dup8\n        /* \"#utility.yul\":4204:4226   */\n      add\n        /* \"#utility.yul\":4183:4236   */\n      tag_103\n      jump\t// in\n    tag_177:\n        /* \"#utility.yul\":4173:4236   */\n      swap3\n      pop\n        /* \"#utility.yul\":4128:4246   */\n      pop\n        /* \"#utility.yul\":4285:4287   */\n      0x40\n        /* \"#utility.yul\":4311:4364   */\n      tag_178\n        /* \"#utility.yul\":4356:4363   */\n      dup7\n        /* \"#utility.yul\":4347:4353   */\n      dup3\n        /* \"#utility.yul\":4336:4345   */\n      dup8\n        /* \"#utility.yul\":4332:4354   */\n      add\n        /* \"#utility.yul\":4311:4364   */\n      tag_103\n      jump\t// in\n    tag_178:\n        /* \"#utility.yul\":4301:4364   */\n      swap2\n      pop\n        /* \"#utility.yul\":4256:4374   */\n      pop\n        /* \"#utility.yul\":3762:4381   */\n      swap3\n      pop\n      swap3\n      pop\n      swap3\n      jump\t// out\n        /* \"#utility.yul\":4387:4556   */\n    tag_112:\n        /* \"#utility.yul\":4471:4482   */\n      0x00\n        /* \"#utility.yul\":4505:4511   */\n      dup3\n        /* \"#utility.yul\":4500:4503   */\n      dup3\n        /* \"#utility.yul\":4493:4512   */\n      mstore\n        /* \"#utility.yul\":4545:4549   */\n      0x20\n        /* \"#utility.yul\":4540:4543   */\n      dup3\n        /* \"#utility.yul\":4536:4550   */\n      add\n        /* \"#utility.yul\":4521:4550   */\n      swap1\n      pop\n        /* \"#utility.yul\":4387:4556   */\n      swap3\n      swap2\n      pop\n      pop\n      jump\t// out\n        /* \"#utility.yul\":4562:4734   */\n    tag_113:\n        /* \"#utility.yul\":4702:4726   */\n      0x546f6f206561726c7920746f20636865636b206f757400000000000000000000\n        /* \"#utility.yul\":4698:4699   */\n      0x00\n        /* \"#utility.yul\":4690:4696   */\n      dup3\n        /* \"#utility.yul\":4686:4700   */\n      add\n        /* \"#utility.yul\":4679:4727   */\n      mstore\n        /* \"#utility.yul\":4562:4734   */\n      pop\n      jump\t// out\n        /* \"#utility.yul\":4740:5106   */\n    tag_114:\n        /* \"#utility.yul\":4882:4885   */\n      0x00\n        /* \"#utility.yul\":4903:4970   */\n      tag_182\n        /* \"#utility.yul\":4967:4969   */\n      0x16\n        /* \"#utility.yul\":4962:4965   */\n      dup4\n        /* \"#utility.yul\":4903:4970   */\n      tag_112\n      jump\t// in\n    tag_182:\n        /* \"#utility.yul\":4896:4970   */\n      swap2\n      pop\n        /* \"#utility.yul\":4979:5072   */\n      tag_183\n        /* \"#utility.yul\":5068:5071   */\n      dup3\n        /* \"#utility.yul\":4979:5072   */\n      tag_113\n      jump\t// in\n    tag_183:\n        /* \"#utility.yul\":5097:5099   */\n      0x20\n        /* \"#utility.yul\":5092:5095   */\n      dup3\n        /* \"#utility.yul\":5088:5100   */\n      add\n        /* \"#utility.yul\":5081:5100   */\n      swap1\n      pop\n        /* \"#utility.yul\":4740:5106   */\n      swap2\n      swap1\n      pop\n      jump\t// out\n        /* \"#utility.yul\":5112:5531   */\n    tag_56:\n        /* \"#utility.yul\":5278:5282   */\n      0x00\n        /* \"#utility.yul\":5316:5318   */\n      0x20\n        /* \"#utility.yul\":5305:5314   */\n      dup3\n        /* \"#utility.yul\":5301:5319   */\n      add\n        /* \"#utility.yul\":5293:5319   */\n      swap1\n      pop\n        /* \"#utility.yul\":5365:5374   */\n      dup2\n        /* \"#utility.yul\":5359:5363   */\n      dup2\n        /* \"#utility.yul\":5355:5375   */\n      sub\n        /* \"#utility.yul\":5351:5352   */\n      0x00\n        /* \"#utility.yul\":5340:5349   */\n      dup4\n        /* \"#utility.yul\":5336:5353   */\n      add\n        /* \"#utility.yul\":5329:5376   */\n      mstore\n        /* \"#utility.yul\":5393:5524   */\n      tag_185\n        /* \"#utility.yul\":5519:5523   */\n      dup2\n        /* \"#utility.yul\":5393:5524   */\n      tag_114\n      jump\t// in\n    tag_185:\n        /* \"#utility.yul\":5385:5524   */\n      swap1\n      pop\n        /* \"#utility.yul\":5112:5531   */\n      swap2\n      swap1\n      pop\n      jump\t// out\n        /* \"#utility.yul\":5537:5712   */\n    tag_115:\n        /* \"#utility.yul\":5677:5704   */\n      0x4f6e6c792072656e7465722063616e20636865636b206f757400000000000000\n        /* \"#utility.yul\":5673:5674   */\n      0x00\n        /* \"#utility.yul\":5665:5671   */\n      dup3\n        /* \"#utility.yul\":5661:5675   */\n      add\n        /* \"#utility.yul\":5654:5705   */\n      mstore\n        /* \"#utility.yul\":5537:5712   */\n      pop\n      jump\t// out\n        /* \"#utility.yul\":5718:6084   */\n    tag_116:\n        /* \"#utility.yul\":5860:5863   */\n      0x00\n        /* \"#utility.yul\":5881:5948   */\n      tag_188\n        /* \"#utility.yul\":5945:5947   */\n      0x19\n        /* \"#utility.yul\":5940:5943   */\n      dup4\n        /* \"#utility.yul\":5881:5948   */\n      tag_112\n      jump\t// in\n    tag_188:\n        /* \"#utility.yul\":5874:5948   */\n      swap2\n      pop\n        /* \"#utility.yul\":5957:6050   */\n      tag_189\n        /* \"#utility.yul\":6046:6049   */\n      dup3\n        /* \"#utility.yul\":5957:6050   */\n      tag_115\n      jump\t// in\n    tag_189:\n        /* \"#utility.yul\":6075:6077   */\n      0x20\n        /* \"#utility.yul\":6070:6073   */\n      dup3\n        /* \"#utility.yul\":6066:6078   */\n      add\n        /* \"#utility.yul\":6059:6078   */\n      swap1\n      pop\n        /* \"#utility.yul\":5718:6084   */\n      swap2\n      swap1\n      pop\n      jump\t// out\n        /* \"#utility.yul\":6090:6509   */\n    tag_59:\n        /* \"#utility.yul\":6256:6260   */\n      0x00\n        /* \"#utility.yul\":6294:6296   */\n      0x20\n        /* \"#utility.yul\":6283:6292   */\n      dup3\n        /* \"#utility.yul\":6279:6297   */\n      add\n        /* \"#utility.yul\":6271:6297   */\n      swap1\n      pop\n        /* \"#utility.yul\":6343:6352   */\n      dup2\n        /* \"#utility.yul\":6337:6341   */\n      dup2\n        /* \"#utility.yul\":6333:6353   */\n      sub\n        /* \"#utility.yul\":6329:6330   */\n      0x00\n        /* \"#utility.yul\":6318:6327   */\n      dup4\n        /* \"#utility.yul\":6314:6331   */\n      add\n        /* \"#utility.yul\":6307:6354   */\n      mstore\n        /* \"#utility.yul\":6371:6502   */\n      tag_191\n        /* \"#utility.yul\":6497:6501   */\n      dup2\n        /* \"#utility.yul\":6371:6502   */\n      tag_116\n      jump\t// in\n    tag_191:\n        /* \"#utility.yul\":6363:6502   */\n      swap1\n      pop\n        /* \"#utility.yul\":6090:6509   */\n      swap2\n      swap1\n      pop\n      jump\t// out\n        /* \"#utility.yul\":6515:6695   */\n    tag_117:\n        /* \"#utility.yul\":6655:6687   */\n      0x4c61746520636865636b6f75742066696e652069732072657175697265640000\n        /* \"#utility.yul\":6651:6652   */\n      0x00\n        /* \"#utility.yul\":6643:6649   */\n      dup3\n        /* \"#utility.yul\":6639:6653   */\n      add\n        /* \"#utility.yul\":6632:6688   */\n      mstore\n        /* \"#utility.yul\":6515:6695   */\n      pop\n      jump\t// out\n        /* \"#utility.yul\":6701:7067   */\n    tag_118:\n        /* \"#utility.yul\":6843:6846   */\n      0x00\n        /* \"#utility.yul\":6864:6931   */\n      tag_194\n        /* \"#utility.yul\":6928:6930   */\n      0x1e\n        /* \"#utility.yul\":6923:6926   */\n      dup4\n        /* \"#utility.yul\":6864:6931   */\n      tag_112\n      jump\t// in\n    tag_194:\n        /* \"#utility.yul\":6857:6931   */\n      swap2\n      pop\n        /* \"#utility.yul\":6940:7033   */\n      tag_195\n        /* \"#utility.yul\":7029:7032   */\n      dup3\n        /* \"#utility.yul\":6940:7033   */\n      tag_117\n      jump\t// in\n    tag_195:\n        /* \"#utility.yul\":7058:7060   */\n      0x20\n        /* \"#utility.yul\":7053:7056   */\n      dup3\n        /* \"#utility.yul\":7049:7061   */\n      add\n        /* \"#utility.yul\":7042:7061   */\n      swap1\n      pop\n        /* \"#utility.yul\":6701:7067   */\n      swap2\n      swap1\n      pop\n      jump\t// out\n        /* \"#utility.yul\":7073:7492   */\n    tag_63:\n        /* \"#utility.yul\":7239:7243   */\n      0x00\n        /* \"#utility.yul\":7277:7279   */\n      0x20\n        /* \"#utility.yul\":7266:7275   */\n      dup3\n        /* \"#utility.yul\":7262:7280   */\n      add\n        /* \"#utility.yul\":7254:7280   */\n      swap1\n      pop\n        /* \"#utility.yul\":7326:7335   */\n      dup2\n        /* \"#utility.yul\":7320:7324   */\n      dup2\n        /* \"#utility.yul\":7316:7336   */\n      sub\n        /* \"#utility.yul\":7312:7313   */\n      0x00\n        /* \"#utility.yul\":7301:7310   */\n      dup4\n        /* \"#utility.yul\":7297:7314   */\n      add\n        /* \"#utility.yul\":7290:7337   */\n      mstore\n        /* \"#utility.yul\":7354:7485   */\n      tag_197\n        /* \"#utility.yul\":7480:7484   */\n      dup2\n        /* \"#utility.yul\":7354:7485   */\n      tag_118\n      jump\t// in\n    tag_197:\n        /* \"#utility.yul\":7346:7485   */\n      swap1\n      pop\n        /* \"#utility.yul\":7073:7492   */\n      swap2\n      swap1\n      pop\n      jump\t// out\n        /* \"#utility.yul\":7498:8039   */\n    tag_65:\n        /* \"#utility.yul\":7669:7673   */\n      0x00\n        /* \"#utility.yul\":7707:7710   */\n      0x80\n        /* \"#utility.yul\":7696:7705   */\n      dup3\n        /* \"#utility.yul\":7692:7711   */\n      add\n        /* \"#utility.yul\":7684:7711   */\n      swap1\n      pop\n        /* \"#utility.yul\":7721:7792   */\n      tag_199\n        /* \"#utility.yul\":7789:7790   */\n      0x00\n        /* \"#utility.yul\":7778:7787   */\n      dup4\n        /* \"#utility.yul\":7774:7791   */\n      add\n        /* \"#utility.yul\":7765:7771   */\n      dup8\n        /* \"#utility.yul\":7721:7792   */\n      tag_104\n      jump\t// in\n    tag_199:\n        /* \"#utility.yul\":7802:7874   */\n      tag_200\n        /* \"#utility.yul\":7870:7872   */\n      0x20\n        /* \"#utility.yul\":7859:7868   */\n      dup4\n        /* \"#utility.yul\":7855:7873   */\n      add\n        /* \"#utility.yul\":7846:7852   */\n      dup7\n        /* \"#utility.yul\":7802:7874   */\n      tag_104\n      jump\t// in\n    tag_200:\n        /* \"#utility.yul\":7884:7956   */\n      tag_201\n        /* \"#utility.yul\":7952:7954   */\n      0x40\n        /* \"#utility.yul\":7941:7950   */\n      dup4\n        /* \"#utility.yul\":7937:7955   */\n      add\n        /* \"#utility.yul\":7928:7934   */\n      dup6\n        /* \"#utility.yul\":7884:7956   */\n      tag_107\n      jump\t// in\n    tag_201:\n        /* \"#utility.yul\":7966:8032   */\n      tag_202\n        /* \"#utility.yul\":8028:8030   */\n      0x60\n        /* \"#utility.yul\":8017:8026   */\n      dup4\n        /* \"#utility.yul\":8013:8031   */\n      add\n        /* \"#utility.yul\":8004:8010   */\n      dup5\n        /* \"#utility.yul\":7966:8032   */\n      tag_109\n      jump\t// in\n    tag_202:\n        /* \"#utility.yul\":7498:8039   */\n      swap6\n      swap5\n      pop\n      pop\n      pop\n      pop\n      pop\n      jump\t// out\n        /* \"#utility.yul\":8045:8225   */\n    tag_119:\n        /* \"#utility.yul\":8093:8170   */\n      0x4e487b7100000000000000000000000000000000000000000000000000000000\n        /* \"#utility.yul\":8090:8091   */\n      0x00\n        /* \"#utility.yul\":8083:8171   */\n      mstore\n        /* \"#utility.yul\":8190:8194   */\n      0x11\n        /* \"#utility.yul\":8187:8188   */\n      0x04\n        /* \"#utility.yul\":8180:8195   */\n      mstore\n        /* \"#utility.yul\":8214:8218   */\n      0x24\n        /* \"#utility.yul\":8211:8212   */\n      0x00\n        /* \"#utility.yul\":8204:8219   */\n      revert\n        /* \"#utility.yul\":8231:8464   */\n    tag_68:\n        /* \"#utility.yul\":8270:8273   */\n      0x00\n        /* \"#utility.yul\":8293:8317   */\n      tag_205\n        /* \"#utility.yul\":8311:8316   */\n      dup3\n        /* \"#utility.yul\":8293:8317   */\n      tag_101\n      jump\t// in\n    tag_205:\n        /* \"#utility.yul\":8284:8317   */\n      swap2\n      pop\n        /* \"#utility.yul\":8339:8405   */\n      0xffffffffffffffffffffffffffffffffffffffffffffffffffffffffffffffff\n        /* \"#utility.yul\":8332:8337   */\n      dup3\n        /* \"#utility.yul\":8329:8406   */\n      sub\n        /* \"#utility.yul\":8326:8429   */\n      tag_206\n      jumpi\n        /* \"#utility.yul\":8409:8427   */\n      tag_207\n      tag_119\n      jump\t// in\n    tag_207:\n        /* \"#utility.yul\":8326:8429   */\n    tag_206:\n        /* \"#utility.yul\":8456:8457   */\n      0x01\n        /* \"#utility.yul\":8449:8454   */\n      dup3\n        /* \"#utility.yul\":8445:8458   */\n      add\n        /* \"#utility.yul\":8438:8458   */\n      swap1\n      pop\n        /* \"#utility.yul\":8231:8464   */\n      swap2\n      swap1\n      pop\n      jump\t// out\n        /* \"#utility.yul\":8470:8912   */\n    tag_70:\n        /* \"#utility.yul\":8619:8623   */\n      0x00\n        /* \"#utility.yul\":8657:8659   */\n      0x60\n        /* \"#utility.yul\":8646:8655   */\n      dup3\n        /* \"#utility.yul\":8642:8660   */\n      add\n        /* \"#utility.yul\":8634:8660   */\n      swap1\n      pop\n        /* \"#utility.yul\":8670:8741   */\n      tag_209\n        /* \"#utility.yul\":8738:8739   */\n      0x00\n        /* \"#utility.yul\":8727:8736   */\n      dup4\n        /* \"#utility.yul\":8723:8740   */\n      add\n        /* \"#utility.yul\":8714:8720   */\n      dup7\n        /* \"#utility.yul\":8670:8741   */\n      tag_104\n      jump\t// in\n    tag_209:\n        /* \"#utility.yul\":8751:8823   */\n      tag_210\n        /* \"#utility.yul\":8819:8821   */\n      0x20\n        /* \"#utility.yul\":8808:8817   */\n      dup4\n        /* \"#utility.yul\":8804:8822   */\n      add\n        /* \"#utility.yul\":8795:8801   */\n      dup6\n        /* \"#utility.yul\":8751:8823   */\n      tag_107\n      jump\t// in\n    tag_210:\n        /* \"#utility.yul\":8833:8905   */\n      tag_211\n        /* \"#utility.yul\":8901:8903   */\n      0x40\n        /* \"#utility.yul\":8890:8899   */\n      dup4\n        /* \"#utility.yul\":8886:8904   */\n      add\n        /* \"#utility.yul\":8877:8883   */\n      dup5\n        /* \"#utility.yul\":8833:8905   */\n      tag_104\n      jump\t// in\n    tag_211:\n        /* \"#utility.yul\":8470:8912   */\n      swap5\n      swap4\n      pop\n      pop\n      pop\n      pop\n      jump\t// out\n        /* \"#utility.yul\":8918:9091   */\n    tag_120:\n        /* \"#utility.yul\":9058:9083   */\n      0x486f75736520697320616c726561647920626f6f6b6564000000000000000000\n        /* \"#utility.yul\":9054:9055   */\n      0x00\n        /* \"#utility.yul\":9046:9052   */\n      dup3\n        /* \"#utility.yul\":9042:9056   */\n      add\n        /* \"#utility.yul\":9035:9084   */\n      mstore\n        /* \"#utility.yul\":8918:9091   */\n      pop\n      jump\t// out\n        /* \"#utility.yul\":9097:9463   */\n    tag_121:\n        /* \"#utility.yul\":9239:9242   */\n      0x00\n        /* \"#utility.yul\":9260:9327   */\n      tag_214\n        /* \"#utility.yul\":9324:9326   */\n      0x17\n        /* \"#utility.yul\":9319:9322   */\n      dup4\n        /* \"#utility.yul\":9260:9327   */\n      tag_112\n      jump\t// in\n    tag_214:\n        /* \"#utility.yul\":9253:9327   */\n      swap2\n      pop\n        /* \"#utility.yul\":9336:9429   */\n      tag_215\n        /* \"#utility.yul\":9425:9428   */\n      dup3\n        /* \"#utility.yul\":9336:9429   */\n      tag_120\n      jump\t// in\n    tag_215:\n        /* \"#utility.yul\":9454:9456   */\n      0x20\n        /* \"#utility.yul\":9449:9452   */\n      dup3\n        /* \"#utility.yul\":9445:9457   */\n      add\n        /* \"#utility.yul\":9438:9457   */\n      swap1\n      pop\n        /* \"#utility.yul\":9097:9463   */\n      swap2\n      swap1\n      pop\n      jump\t// out\n        /* \"#utility.yul\":9469:9888   */\n    tag_74:\n        /* \"#utility.yul\":9635:9639   */\n      0x00\n        /* \"#utility.yul\":9673:9675   */\n      0x20\n        /* \"#utility.yul\":9662:9671   */\n      dup3\n        /* \"#utility.yul\":9658:9676   */\n      add\n        /* \"#utility.yul\":9650:9676   */\n      swap1\n      pop\n        /* \"#utility.yul\":9722:9731   */\n      dup2\n        /* \"#utility.yul\":9716:9720   */\n      dup2\n        /* \"#utility.yul\":9712:9732   */\n      sub\n        /* \"#utility.yul\":9708:9709   */\n      0x00\n        /* \"#utility.yul\":9697:9706   */\n      dup4\n        /* \"#utility.yul\":9693:9710   */\n      add\n        /* \"#utility.yul\":9686:9733   */\n      mstore\n        /* \"#utility.yul\":9750:9881   */\n      tag_217\n        /* \"#utility.yul\":9876:9880   */\n      dup2\n        /* \"#utility.yul\":9750:9881   */\n      tag_121\n      jump\t// in\n    tag_217:\n        /* \"#utility.yul\":9742:9881   */\n      swap1\n      pop\n        /* \"#utility.yul\":9469:9888   */\n      swap2\n      swap1\n      pop\n      jump\t// out\n        /* \"#utility.yul\":9894:10088   */\n    tag_76:\n        /* \"#utility.yul\":9934:9938   */\n      0x00\n        /* \"#utility.yul\":9954:9974   */\n      tag_219\n        /* \"#utility.yul\":9972:9973   */\n      dup3\n        /* \"#utility.yul\":9954:9974   */\n      tag_101\n      jump\t// in\n    tag_219:\n        /* \"#utility.yul\":9949:9974   */\n      swap2\n      pop\n        /* \"#utility.yul\":9988:10008   */\n      tag_220\n        /* \"#utility.yul\":10006:10007   */\n      dup4\n        /* \"#utility.yul\":9988:10008   */\n      tag_101\n      jump\t// in\n    tag_220:\n        /* \"#utility.yul\":9983:10008   */\n      swap3\n      pop\n        /* \"#utility.yul\":10032:10033   */\n      dup3\n        /* \"#utility.yul\":10029:10030   */\n      dup3\n        /* \"#utility.yul\":10025:10034   */\n      sub\n        /* \"#utility.yul\":10017:10034   */\n      swap1\n      pop\n        /* \"#utility.yul\":10056:10057   */\n      dup2\n        /* \"#utility.yul\":10050:10054   */\n      dup2\n        /* \"#utility.yul\":10047:10058   */\n      gt\n        /* \"#utility.yul\":10044:10081   */\n      iszero\n      tag_221\n      jumpi\n        /* \"#utility.yul\":10061:10079   */\n      tag_222\n      tag_119\n      jump\t// in\n    tag_222:\n        /* \"#utility.yul\":10044:10081   */\n    tag_221:\n        /* \"#utility.yul\":9894:10088   */\n      swap3\n      swap2\n      pop\n      pop\n      jump\t// out\n        /* \"#utility.yul\":10094:10504   */\n    tag_78:\n        /* \"#utility.yul\":10134:10141   */\n      0x00\n        /* \"#utility.yul\":10157:10177   */\n      tag_224\n        /* \"#utility.yul\":10175:10176   */\n      dup3\n        /* \"#utility.yul\":10157:10177   */\n      tag_101\n      jump\t// in\n    tag_224:\n        /* \"#utility.yul\":10152:10177   */\n      swap2\n      pop\n        /* \"#utility.yul\":10191:10211   */\n      tag_225\n        /* \"#utility.yul\":10209:10210   */\n      dup4\n        /* \"#utility.yul\":10191:10211   */\n      tag_101\n      jump\t// in\n    tag_225:\n        /* \"#utility.yul\":10186:10211   */\n      swap3\n      pop\n        /* \"#utility.yul\":10246:10247   */\n      dup3\n        /* \"#utility.yul\":10243:10244   */\n      dup3\n        /* \"#utility.yul\":10239:10248   */\n      mul\n        /* \"#utility.yul\":10268:10298   */\n      tag_226\n        /* \"#utility.yul\":10286:10297   */\n      dup2\n        /* \"#utility.yul\":10268:10298   */\n      tag_101\n      jump\t// in\n    tag_226:\n        /* \"#utility.yul\":10257:10298   */\n      swap2\n      pop\n        /* \"#utility.yul\":10447:10448   */\n      dup3\n        /* \"#utility.yul\":10438:10445   */\n      dup3\n        /* \"#utility.yul\":10434:10449   */\n      div\n        /* \"#utility.yul\":10431:10432   */\n      dup5\n        /* \"#utility.yul\":10428:10450   */\n      eq\n        /* \"#utility.yul\":10408:10409   */\n      dup4\n        /* \"#utility.yul\":10401:10410   */\n      iszero\n        /* \"#utility.yul\":10381:10464   */\n      or\n        /* \"#utility.yul\":10358:10497   */\n      tag_227\n      jumpi\n        /* \"#utility.yul\":10477:10495   */\n      tag_228\n      tag_119\n      jump\t// in\n    tag_228:\n        /* \"#utility.yul\":10358:10497   */\n    tag_227:\n        /* \"#utility.yul\":10142:10504   */\n      pop\n        /* \"#utility.yul\":10094:10504   */\n      swap3\n      swap2\n      pop\n      pop\n      jump\t// out\n        /* \"#utility.yul\":10510:10690   */\n    tag_122:\n        /* \"#utility.yul\":10558:10635   */\n      0x4e487b7100000000000000000000000000000000000000000000000000000000\n        /* \"#utility.yul\":10555:10556   */\n      0x00\n        /* \"#utility.yul\":10548:10636   */\n      mstore\n        /* \"#utility.yul\":10655:10659   */\n      0x12\n        /* \"#utility.yul\":10652:10653   */\n      0x04\n        /* \"#utility.yul\":10645:10660   */\n      mstore\n        /* \"#utility.yul\":10679:10683   */\n      0x24\n        /* \"#utility.yul\":10676:10677   */\n      0x00\n        /* \"#utility.yul\":10669:10684   */\n      revert\n        /* \"#utility.yul\":10696:10881   */\n    tag_80:\n        /* \"#utility.yul\":10736:10737   */\n      0x00\n        /* \"#utility.yul\":10753:10773   */\n      tag_231\n        /* \"#utility.yul\":10771:10772   */\n      dup3\n        /* \"#utility.yul\":10753:10773   */\n      tag_101\n      jump\t// in\n    tag_231:\n        /* \"#utility.yul\":10748:10773   */\n      swap2\n      pop\n        /* \"#utility.yul\":10787:10807   */\n      tag_232\n        /* \"#utility.yul\":10805:10806   */\n      dup4\n        /* \"#utility.yul\":10787:10807   */\n      tag_101\n      jump\t// in\n    tag_232:\n        /* \"#utility.yul\":10782:10807   */\n      swap3\n      pop\n        /* \"#utility.yul\":10826:10827   */\n      dup3\n        /* \"#utility.yul\":10816:10851   */\n      tag_233\n      jumpi\n        /* \"#utility.yul\":10831:10849   */\n      tag_234\n      tag_122\n      jump\t// in\n    tag_234:\n        /* \"#utility.yul\":10816:10851   */\n    tag_233:\n        /* \"#utility.yul\":10873:10874   */\n      dup3\n        /* \"#utility.yul\":10870:10871   */\n      dup3\n        /* \"#utility.yul\":10866:10875   */\n      div\n        /* \"#utility.yul\":10861:10875   */\n      swap1\n      pop\n        /* \"#utility.yul\":10696:10881   */\n      swap3\n      swap2\n      pop\n      pop\n      jump\t// out\n        /* \"#utility.yul\":10887:11057   */\n    tag_123:\n        /* \"#utility.yul\":11027:11049   */\n      0x496e73756666696369656e74207061796d656e74000000000000000000000000\n        /* \"#utility.yul\":11023:11024   */\n      0x00\n        /* \"#utility.yul\":11015:11021   */\n      dup3\n        /* \"#utility.yul\":11011:11025   */\n      add\n        /* \"#utility.yul\":11004:11050   */\n      mstore\n        /* \"#utility.yul\":10887:11057   */\n      pop\n      jump\t// out\n        /* \"#utility.yul\":11063:11429   */\n    tag_124:\n        /* \"#utility.yul\":11205:11208   */\n      0x00\n        /* \"#utility.yul\":11226:11293   */\n      tag_237\n        /* \"#utility.yul\":11290:11292   */\n      0x14\n        /* \"#utility.yul\":11285:11288   */\n      dup4\n        /* \"#utility.yul\":11226:11293   */\n      tag_112\n      jump\t// in\n    tag_237:\n        /* \"#utility.yul\":11219:11293   */\n      swap2\n      pop\n        /* \"#utility.yul\":11302:11395   */\n      tag_238\n        /* \"#utility.yul\":11391:11394   */\n      dup3\n        /* \"#utility.yul\":11302:11395   */\n      tag_123\n      jump\t// in\n    tag_238:\n        /* \"#utility.yul\":11420:11422   */\n      0x20\n        /* \"#utility.yul\":11415:11418   */\n      dup3\n        /* \"#utility.yul\":11411:11423   */\n      add\n        /* \"#utility.yul\":11404:11423   */\n      swap1\n      pop\n        /* \"#utility.yul\":11063:11429   */\n      swap2\n      swap1\n      pop\n      jump\t// out\n        /* \"#utility.yul\":11435:11854   */\n    tag_83:\n        /* \"#utility.yul\":11601:11605   */\n      0x00\n        /* \"#utility.yul\":11639:11641   */\n      0x20\n        /* \"#utility.yul\":11628:11637   */\n      dup3\n        /* \"#utility.yul\":11624:11642   */\n      add\n        /* \"#utility.yul\":11616:11642   */\n      swap1\n      pop\n        /* \"#utility.yul\":11688:11697   */\n      dup2\n        /* \"#utility.yul\":11682:11686   */\n      dup2\n        /* \"#utility.yul\":11678:11698   */\n      sub\n        /* \"#utility.yul\":11674:11675   */\n      0x00\n        /* \"#utility.yul\":11663:11672   */\n      dup4\n        /* \"#utility.yul\":11659:11676   */\n      add\n        /* \"#utility.yul\":11652:11699   */\n      mstore\n        /* \"#utility.yul\":11716:11847   */\n      tag_240\n        /* \"#utility.yul\":11842:11846   */\n      dup2\n        /* \"#utility.yul\":11716:11847   */\n      tag_124\n      jump\t// in\n    tag_240:\n        /* \"#utility.yul\":11708:11847   */\n      swap1\n      pop\n        /* \"#utility.yul\":11435:11854   */\n      swap2\n      swap1\n      pop\n      jump\t// out\n        /* \"#utility.yul\":11860:12524   */\n    tag_88:\n        /* \"#utility.yul\":12065:12069   */\n      0x00\n        /* \"#utility.yul\":12103:12106   */\n      0xa0\n        /* \"#utility.yul\":12092:12101   */\n      dup3\n        /* \"#utility.yul\":12088:12107   */\n      add\n        /* \"#utility.yul\":12080:12107   */\n      swap1\n      pop\n        /* \"#utility.yul\":12117:12188   */\n      tag_242\n        /* \"#utility.yul\":12185:12186   */\n      0x00\n        /* \"#utility.yul\":12174:12183   */\n      dup4\n        /* \"#utility.yul\":12170:12187   */\n      add\n        /* \"#utility.yul\":12161:12167   */\n      dup9\n        /* \"#utility.yul\":12117:12188   */\n      tag_104\n      jump\t// in\n    tag_242:\n        /* \"#utility.yul\":12198:12270   */\n      tag_243\n        /* \"#utility.yul\":12266:12268   */\n      0x20\n        /* \"#utility.yul\":12255:12264   */\n      dup4\n        /* \"#utility.yul\":12251:12269   */\n      add\n        /* \"#utility.yul\":12242:12248   */\n      dup8\n        /* \"#utility.yul\":12198:12270   */\n      tag_104\n      jump\t// in\n    tag_243:\n        /* \"#utility.yul\":12280:12352   */\n      tag_244\n        /* \"#utility.yul\":12348:12350   */\n      0x40\n        /* \"#utility.yul\":12337:12346   */\n      dup4\n        /* \"#utility.yul\":12333:12351   */\n      add\n        /* \"#utility.yul\":12324:12330   */\n      dup7\n        /* \"#utility.yul\":12280:12352   */\n      tag_107\n      jump\t// in\n    tag_244:\n        /* \"#utility.yul\":12362:12434   */\n      tag_245\n        /* \"#utility.yul\":12430:12432   */\n      0x60\n        /* \"#utility.yul\":12419:12428   */\n      dup4\n        /* \"#utility.yul\":12415:12433   */\n      add\n        /* \"#utility.yul\":12406:12412   */\n      dup6\n        /* \"#utility.yul\":12362:12434   */\n      tag_104\n      jump\t// in\n    tag_245:\n        /* \"#utility.yul\":12444:12517   */\n      tag_246\n        /* \"#utility.yul\":12512:12515   */\n      0x80\n        /* \"#utility.yul\":12501:12510   */\n      dup4\n        /* \"#utility.yul\":12497:12516   */\n      add\n        /* \"#utility.yul\":12488:12494   */\n      dup5\n        /* \"#utility.yul\":12444:12517   */\n      tag_104\n      jump\t// in\n    tag_246:\n        /* \"#utility.yul\":11860:12524   */\n      swap7\n      swap6\n      pop\n      pop\n      pop\n      pop\n      pop\n      pop\n      jump\t// out\n        /* \"#utility.yul\":12530:12701   */\n    tag_125:\n        /* \"#utility.yul\":12670:12693   */\n      0x546f6f206561726c7920746f20636865636b20696e0000000000000000000000\n        /* \"#utility.yul\":12666:12667   */\n      0x00\n        /* \"#utility.yul\":12658:12664   */\n      dup3\n        /* \"#utility.yul\":12654:12668   */\n      add\n        /* \"#utility.yul\":12647:12694   */\n      mstore\n        /* \"#utility.yul\":12530:12701   */\n      pop\n      jump\t// out\n        /* \"#utility.yul\":12707:13073   */\n    tag_126:\n        /* \"#utility.yul\":12849:12852   */\n      0x00\n        /* \"#utility.yul\":12870:12937   */\n      tag_249\n        /* \"#utility.yul\":12934:12936   */\n      0x15\n        /* \"#utility.yul\":12929:12932   */\n      dup4\n        /* \"#utility.yul\":12870:12937   */\n      tag_112\n      jump\t// in\n    tag_249:\n        /* \"#utility.yul\":12863:12937   */\n      swap2\n      pop\n        /* \"#utility.yul\":12946:13039   */\n      tag_250\n        /* \"#utility.yul\":13035:13038   */\n      dup3\n        /* \"#utility.yul\":12946:13039   */\n      tag_125\n      jump\t// in\n    tag_250:\n        /* \"#utility.yul\":13064:13066   */\n      0x20\n        /* \"#utility.yul\":13059:13062   */\n      dup3\n        /* \"#utility.yul\":13055:13067   */\n      add\n        /* \"#utility.yul\":13048:13067   */\n      swap1\n      pop\n        /* \"#utility.yul\":12707:13073   */\n      swap2\n      swap1\n      pop\n      jump\t// out\n        /* \"#utility.yul\":13079:13498   */\n    tag_92:\n        /* \"#utility.yul\":13245:13249   */\n      0x00\n        /* \"#utility.yul\":13283:13285   */\n      0x20\n        /* \"#utility.yul\":13272:13281   */\n      dup3\n        /* \"#utility.yul\":13268:13286   */\n      add\n        /* \"#utility.yul\":13260:13286   */\n      swap1\n      pop\n        /* \"#utility.yul\":13332:13341   */\n      dup2\n        /* \"#utility.yul\":13326:13330   */\n      dup2\n        /* \"#utility.yul\":13322:13342   */\n      sub\n        /* \"#utility.yul\":13318:13319   */\n      0x00\n        /* \"#utility.yul\":13307:13316   */\n      dup4\n        /* \"#utility.yul\":13303:13320   */\n      add\n        /* \"#utility.yul\":13296:13343   */\n      mstore\n        /* \"#utility.yul\":13360:13491   */\n      tag_252\n        /* \"#utility.yul\":13486:13490   */\n      dup2\n        /* \"#utility.yul\":13360:13491   */\n      tag_126\n      jump\t// in\n    tag_252:\n        /* \"#utility.yul\":13352:13491   */\n      swap1\n      pop\n        /* \"#utility.yul\":13079:13498   */\n      swap2\n      swap1\n      pop\n      jump\t// out\n        /* \"#utility.yul\":13504:13678   */\n    tag_127:\n        /* \"#utility.yul\":13644:13670   */\n      0x4f6e6c792072656e7465722063616e20636865636b20696e0000000000000000\n        /* \"#utility.yul\":13640:13641   */\n      0x00\n        /* \"#utility.yul\":13632:13638   */\n      dup3\n        /* \"#utility.yul\":13628:13642   */\n      add\n        /* \"#utility.yul\":13621:13671   */\n      mstore\n        /* \"#utility.yul\":13504:13678   */\n      pop\n      jump\t// out\n        /* \"#utility.yul\":13684:14050   */\n    tag_128:\n        /* \"#utility.yul\":13826:13829   */\n      0x00\n        /* \"#utility.yul\":13847:13914   */\n      tag_255\n        /* \"#utility.yul\":13911:13913   */\n      0x18\n        /* \"#utility.yul\":13906:13909   */\n      dup4\n        /* \"#utility.yul\":13847:13914   */\n      tag_112\n      jump\t// in\n    tag_255:\n        /* \"#utility.yul\":13840:13914   */\n      swap2\n      pop\n        /* \"#utility.yul\":13923:14016   */\n      tag_256\n        /* \"#utility.yul\":14012:14015   */\n      dup3\n        /* \"#utility.yul\":13923:14016   */\n      tag_127\n      jump\t// in\n    tag_256:\n        /* \"#utility.yul\":14041:14043   */\n      0x20\n        /* \"#utility.yul\":14036:14039   */\n      dup3\n        /* \"#utility.yul\":14032:14044   */\n      add\n        /* \"#utility.yul\":14025:14044   */\n      swap1\n      pop\n        /* \"#utility.yul\":13684:14050   */\n      swap2\n      swap1\n      pop\n      jump\t// out\n        /* \"#utility.yul\":14056:14475   */\n    tag_95:\n        /* \"#utility.yul\":14222:14226   */\n      0x00\n        /* \"#utility.yul\":14260:14262   */\n      0x20\n        /* \"#utility.yul\":14249:14258   */\n      dup3\n        /* \"#utility.yul\":14245:14263   */\n      add\n        /* \"#utility.yul\":14237:14263   */\n      swap1\n      pop\n        /* \"#utility.yul\":14309:14318   */\n      dup2\n        /* \"#utility.yul\":14303:14307   */\n      dup2\n        /* \"#utility.yul\":14299:14319   */\n      sub\n        /* \"#utility.yul\":14295:14296   */\n      0x00\n        /* \"#utility.yul\":14284:14293   */\n      dup4\n        /* \"#utility.yul\":14280:14297   */\n      add\n        /* \"#utility.yul\":14273:14320   */\n      mstore\n        /* \"#utility.yul\":14337:14468   */\n      tag_258\n        /* \"#utility.yul\":14463:14467   */\n      dup2\n        /* \"#utility.yul\":14337:14468   */\n      tag_128\n      jump\t// in\n    tag_258:\n        /* \"#utility.yul\":14329:14468   */\n      swap1\n      pop\n        /* \"#utility.yul\":14056:14475   */\n      swap2\n      swap1\n      pop\n      jump\t// out\n        /* \"#utility.yul\":14481:14923   */\n    tag_97:\n        /* \"#utility.yul\":14630:14634   */\n      0x00\n        /* \"#utility.yul\":14668:14670   */\n      0x60\n        /* \"#utility.yul\":14657:14666   */\n      dup3\n        /* \"#utility.yul\":14653:14671   */\n      add\n        /* \"#utility.yul\":14645:14671   */\n      swap1\n      pop\n        /* \"#utility.yul\":14681:14752   */\n      tag_260\n        /* \"#utility.yul\":14749:14750   */\n      0x00\n        /* \"#utility.yul\":14738:14747   */\n      dup4\n        /* \"#utility.yul\":14734:14751   */\n      add\n        /* \"#utility.yul\":14725:14731   */\n      dup7\n        /* \"#utility.yul\":14681:14752   */\n      tag_104\n      jump\t// in\n    tag_260:\n        /* \"#utility.yul\":14762:14834   */\n      tag_261\n        /* \"#utility.yul\":14830:14832   */\n      0x20\n        /* \"#utility.yul\":14819:14828   */\n      dup4\n        /* \"#utility.yul\":14815:14833   */\n      add\n        /* \"#utility.yul\":14806:14812   */\n      dup6\n        /* \"#utility.yul\":14762:14834   */\n      tag_104\n      jump\t// in\n    tag_261:\n        /* \"#utility.yul\":14844:14916   */\n      tag_262\n        /* \"#utility.yul\":14912:14914   */\n      0x40\n        /* \"#utility.yul\":14901:14910   */\n      dup4\n        /* \"#utility.yul\":14897:14915   */\n      add\n        /* \"#utility.yul\":14888:14894   */\n      dup5\n        /* \"#utility.yul\":14844:14916   */\n      tag_107\n      jump\t// in\n    tag_262:\n        /* \"#utility.yul\":14481:14923   */\n      swap5\n      swap4\n      pop\n      pop\n      pop\n      pop\n      jump\t// out\n\n    auxdata: 0xa26469706673582212207b4839674517758b1bc244b62d98a423506cfda3e06675cadf44c4d483d1e0cc64736f6c63430008190033\n}\n",
				"bytecode": {
					"linkReferences": {},
					"object": "60806040525f80555f600155670de0b6b3a76400006002553480156021575f80fd5b5061117f8061002f5f395ff3fe608060405260043610610085575f3560e01c80636d759172116100585780636d75917214610138578063aeda852f14610162578063bd74f8b1146101a3578063d668c67b146101cd578063e95a644f146101e957610085565b80631bd2eeee146100895780631dab301e146100a557806328fb688e146100e657806329363cdc14610110575b5f80fd5b6100a3600480360381019061009e9190610a44565b610211565b005b3480156100b0575f80fd5b506100cb60048036038101906100c69190610a44565b6103e3565b6040516100dd96959493929190610ad7565b60405180910390f35b3480156100f1575f80fd5b506100fa610453565b6040516101079190610b36565b60405180910390f35b34801561011b575f80fd5b5061013660048036038101906101319190610a44565b610459565b005b348015610143575f80fd5b5061014c610594565b6040516101599190610b36565b60405180910390f35b34801561016d575f80fd5b5061018860048036038101906101839190610a44565b61059a565b60405161019a96959493929190610b6f565b60405180910390f35b3480156101ae575f80fd5b506101b76105fd565b6040516101c49190610b36565b60405180910390f35b6101e760048036038101906101e29190610bce565b610602565b005b3480156101f4575f80fd5b5061020f600480360381019061020a9190610a44565b6108c3565b005b5f60045f8381526020019081526020015f209050806003015442101561026c576040517f08c379a000000000000000000000000000000000000000000000000000000000815260040161026390610c78565b60405180910390fd5b806001015f9054906101000a900473ffffffffffffffffffffffffffffffffffffffff1673ffffffffffffffffffffffffffffffffffffffff163373ffffffffffffffffffffffffffffffffffffffff16146102fd576040517f08c379a00000000000000000000000000000000000000000000000000000000081526004016102f490610ce0565b60405180910390fd5b5f816003015442119050801561035357600254341015610352576040517f08c379a000000000000000000000000000000000000000000000000000000000815260040161034990610d48565b60405180910390fd5b5b60018260040160016101000a81548160ff0219169083151502179055505f60035f845f015481526020019081526020015f206003015f6101000a81548160ff0219169083151502179055507f9c15021c0cfee72423f93de70bdc0d624c928c6bfab028005e59b0c968b9d06d83835f015433846040516103d69493929190610d66565b60405180910390a1505050565b6004602052805f5260405f205f91509050805f015490806001015f9054906101000a900473ffffffffffffffffffffffffffffffffffffffff1690806002015490806003015490806004015f9054906101000a900460ff16908060040160019054906101000a900460ff16905086565b60025481565b5f8081548092919061046a90610dd6565b91905055506040518060c001604052805f5481526020013373ffffffffffffffffffffffffffffffffffffffff1681526020018281526020015f151581526020015f81526020015f81525060035f805481526020019081526020015f205f820151815f01556020820151816001015f6101000a81548173ffffffffffffffffffffffffffffffffffffffff021916908373ffffffffffffffffffffffffffffffffffffffff160217905550604082015181600201556060820151816003015f6101000a81548160ff0219169083151502179055506080820151816004015560a082015181600501559050507ffb7546692669c78e8126bd1f18c25858a51745cadbe62de4c52c410c4e1c48515f54338360405161058993929190610e1d565b60405180910390a150565b60015481565b6003602052805f5260405f205f91509050805f015490806001015f9054906101000a900473ffffffffffffffffffffffffffffffffffffffff1690806002015490806003015f9054906101000a900460ff16908060040154908060050154905086565b5f5481565b5f60035f8581526020019081526020015f209050806003015f9054906101000a900460ff1615610667576040517f08c379a000000000000000000000000000000000000000000000000000000000815260040161065e90610e9c565b60405180910390fd5b6201518083836106779190610eba565b82600201546106869190610eed565b6106909190610f5b565b3410156106d2576040517f08c379a00000000000000000000000000000000000000000000000000000000081526004016106c990610fd5565b60405180910390fd5b60015f8154809291906106e490610dd6565b91905055506040518060c001604052808581526020013373ffffffffffffffffffffffffffffffffffffffff1681526020018481526020018381526020015f151581526020015f151581525060045f60015481526020019081526020015f205f820151815f01556020820151816001015f6101000a81548173ffffffffffffffffffffffffffffffffffffffff021916908373ffffffffffffffffffffffffffffffffffffffff16021790555060408201518160020155606082015181600301556080820151816004015f6101000a81548160ff02191690831515021790555060a08201518160040160016101000a81548160ff0219169083151502179055509050506001816003015f6101000a81548160ff021916908315150217905550828160040181905550818160050181905550806001015f9054906101000a900473ffffffffffffffffffffffffffffffffffffffff1673ffffffffffffffffffffffffffffffffffffffff166108fc3490811502906040515f60405180830381858888f1935050505015801561087b573d5f803e3d5ffd5b507f0e47d3c268f587e43ffa5940b3b439d9d2812238e799cb640f517d54ae2074c6600154853386866040516108b5959493929190610ff3565b60405180910390a150505050565b5f60045f8381526020019081526020015f209050806002015442101561091e576040517f08c379a00000000000000000000000000000000000000000000000000000000081526004016109159061108e565b60405180910390fd5b806001015f9054906101000a900473ffffffffffffffffffffffffffffffffffffffff1673ffffffffffffffffffffffffffffffffffffffff163373ffffffffffffffffffffffffffffffffffffffff16146109af576040517f08c379a00000000000000000000000000000000000000000000000000000000081526004016109a6906110f6565b60405180910390fd5b6001816004015f6101000a81548160ff0219169083151502179055507f957a7d05a0db579961310818480bc052bb358945e846c0948c1e0691cf43dc4482825f015433604051610a0193929190611114565b60405180910390a15050565b5f80fd5b5f819050919050565b610a2381610a11565b8114610a2d575f80fd5b50565b5f81359050610a3e81610a1a565b92915050565b5f60208284031215610a5957610a58610a0d565b5b5f610a6684828501610a30565b91505092915050565b610a7881610a11565b82525050565b5f73ffffffffffffffffffffffffffffffffffffffff82169050919050565b5f610aa782610a7e565b9050919050565b610ab781610a9d565b82525050565b5f8115159050919050565b610ad181610abd565b82525050565b5f60c082019050610aea5f830189610a6f565b610af76020830188610aae565b610b046040830187610a6f565b610b116060830186610a6f565b610b1e6080830185610ac8565b610b2b60a0830184610ac8565b979650505050505050565b5f602082019050610b495f830184610a6f565b92915050565b5f610b5982610a7e565b9050919050565b610b6981610b4f565b82525050565b5f60c082019050610b825f830189610a6f565b610b8f6020830188610b60565b610b9c6040830187610a6f565b610ba96060830186610ac8565b610bb66080830185610a6f565b610bc360a0830184610a6f565b979650505050505050565b5f805f60608486031215610be557610be4610a0d565b5b5f610bf286828701610a30565b9350506020610c0386828701610a30565b9250506040610c1486828701610a30565b9150509250925092565b5f82825260208201905092915050565b7f546f6f206561726c7920746f20636865636b206f7574000000000000000000005f82015250565b5f610c62601683610c1e565b9150610c6d82610c2e565b602082019050919050565b5f6020820190508181035f830152610c8f81610c56565b9050919050565b7f4f6e6c792072656e7465722063616e20636865636b206f7574000000000000005f82015250565b5f610cca601983610c1e565b9150610cd582610c96565b602082019050919050565b5f6020820190508181035f830152610cf781610cbe565b9050919050565b7f4c61746520636865636b6f75742066696e6520697320726571756972656400005f82015250565b5f610d32601e83610c1e565b9150610d3d82610cfe565b602082019050919050565b5f6020820190508181035f830152610d5f81610d26565b9050919050565b5f608082019050610d795f830187610a6f565b610d866020830186610a6f565b610d936040830185610aae565b610da06060830184610ac8565b95945050505050565b7f4e487b71000000000000000000000000000000000000000000000000000000005f52601160045260245ffd5b5f610de082610a11565b91507fffffffffffffffffffffffffffffffffffffffffffffffffffffffffffffffff8203610e1257610e11610da9565b5b600182019050919050565b5f606082019050610e305f830186610a6f565b610e3d6020830185610aae565b610e4a6040830184610a6f565b949350505050565b7f486f75736520697320616c726561647920626f6f6b65640000000000000000005f82015250565b5f610e86601783610c1e565b9150610e9182610e52565b602082019050919050565b5f6020820190508181035f830152610eb381610e7a565b9050919050565b5f610ec482610a11565b9150610ecf83610a11565b9250828203905081811115610ee757610ee6610da9565b5b92915050565b5f610ef782610a11565b9150610f0283610a11565b9250828202610f1081610a11565b91508282048414831517610f2757610f26610da9565b5b5092915050565b7f4e487b71000000000000000000000000000000000000000000000000000000005f52601260045260245ffd5b5f610f6582610a11565b9150610f7083610a11565b925082610f8057610f7f610f2e565b5b828204905092915050565b7f496e73756666696369656e74207061796d656e740000000000000000000000005f82015250565b5f610fbf601483610c1e565b9150610fca82610f8b565b602082019050919050565b5f6020820190508181035f830152610fec81610fb3565b9050919050565b5f60a0820190506110065f830188610a6f565b6110136020830187610a6f565b6110206040830186610aae565b61102d6060830185610a6f565b61103a6080830184610a6f565b9695505050505050565b7f546f6f206561726c7920746f20636865636b20696e00000000000000000000005f82015250565b5f611078601583610c1e565b915061108382611044565b602082019050919050565b5f6020820190508181035f8301526110a58161106c565b9050919050565b7f4f6e6c792072656e7465722063616e20636865636b20696e00000000000000005f82015250565b5f6110e0601883610c1e565b91506110eb826110ac565b602082019050919050565b5f6020820190508181035f83015261110d816110d4565b9050919050565b5f6060820190506111275f830186610a6f565b6111346020830185610a6f565b6111416040830184610aae565b94935050505056fea26469706673582212207b4839674517758b1bc244b62d98a423506cfda3e06675cadf44c4d483d1e0cc64736f6c63430008190033",
					"opcodes": "PUSH1 0x80 PUSH1 0x40 MSTORE PUSH0 DUP1 SSTORE PUSH0 PUSH1 0x1 SSTORE PUSH8 0xDE0B6B3A7640000 PUSH1 0x2 SSTORE CALLVALUE DUP1 ISZERO PUSH1 0x21 JUMPI PUSH0 DUP1 REVERT JUMPDEST POP PUSH2 0x117F DUP1 PUSH2 0x2F PUSH0 CODECOPY PUSH0 RETURN INVALID PUSH1 0x80 PUSH1 0x40 MSTORE PUSH1 0x4 CALLDATASIZE LT PUSH2 0x85 JUMPI PUSH0 CALLDATALOAD PUSH1 0xE0 SHR DUP1 PUSH4 0x6D759172 GT PUSH2 0x58 JUMPI DUP1 PUSH4 0x6D759172 EQ PUSH2 0x138 JUMPI DUP1 PUSH4 0xAEDA852F EQ PUSH2 0x162 JUMPI DUP1 PUSH4 0xBD74F8B1 EQ PUSH2 0x1A3 JUMPI DUP1 PUSH4 0xD668C67B EQ PUSH2 0x1CD JUMPI DUP1 PUSH4 0xE95A644F EQ PUSH2 0x1E9 JUMPI PUSH2 0x85 JUMP JUMPDEST DUP1 PUSH4 0x1BD2EEEE EQ PUSH2 0x89 JUMPI DUP1 PUSH4 0x1DAB301E EQ PUSH2 0xA5 JUMPI DUP1 PUSH4 0x28FB688E EQ PUSH2 0xE6 JUMPI DUP1 PUSH4 0x29363CDC EQ PUSH2 0x110 JUMPI JUMPDEST PUSH0 DUP1 REVERT JUMPDEST PUSH2 0xA3 PUSH1 0x4 DUP1 CALLDATASIZE SUB DUP2 ADD SWAP1 PUSH2 0x9E SWAP2 SWAP1 PUSH2 0xA44 JUMP JUMPDEST PUSH2 0x211 JUMP JUMPDEST STOP JUMPDEST CALLVALUE DUP1 ISZERO PUSH2 0xB0 JUMPI PUSH0 DUP1 REVERT JUMPDEST POP PUSH2 0xCB PUSH1 0x4 DUP1 CALLDATASIZE SUB DUP2 ADD SWAP1 PUSH2 0xC6 SWAP2 SWAP1 PUSH2 0xA44 JUMP JUMPDEST PUSH2 0x3E3 JUMP JUMPDEST PUSH1 0x40 MLOAD PUSH2 0xDD SWAP7 SWAP6 SWAP5 SWAP4 SWAP3 SWAP2 SWAP1 PUSH2 0xAD7 JUMP JUMPDEST PUSH1 0x40 MLOAD DUP1 SWAP2 SUB SWAP1 RETURN JUMPDEST CALLVALUE DUP1 ISZERO PUSH2 0xF1 JUMPI PUSH0 DUP1 REVERT JUMPDEST POP PUSH2 0xFA PUSH2 0x453 JUMP JUMPDEST PUSH1 0x40 MLOAD PUSH2 0x107 SWAP2 SWAP1 PUSH2 0xB36 JUMP JUMPDEST PUSH1 0x40 MLOAD DUP1 SWAP2 SUB SWAP1 RETURN JUMPDEST CALLVALUE DUP1 ISZERO PUSH2 0x11B JUMPI PUSH0 DUP1 REVERT JUMPDEST POP PUSH2 0x136 PUSH1 0x4 DUP1 CALLDATASIZE SUB DUP2 ADD SWAP1 PUSH2 0x131 SWAP2 SWAP1 PUSH2 0xA44 JUMP JUMPDEST PUSH2 0x459 JUMP JUMPDEST STOP JUMPDEST CALLVALUE DUP1 ISZERO PUSH2 0x143 JUMPI PUSH0 DUP1 REVERT JUMPDEST POP PUSH2 0x14C PUSH2 0x594 JUMP JUMPDEST PUSH1 0x40 MLOAD PUSH2 0x159 SWAP2 SWAP1 PUSH2 0xB36 JUMP JUMPDEST PUSH1 0x40 MLOAD DUP1 SWAP2 SUB SWAP1 RETURN JUMPDEST CALLVALUE DUP1 ISZERO PUSH2 0x16D JUMPI PUSH0 DUP1 REVERT JUMPDEST POP PUSH2 0x188 PUSH1 0x4 DUP1 CALLDATASIZE SUB DUP2 ADD SWAP1 PUSH2 0x183 SWAP2 SWAP1 PUSH2 0xA44 JUMP JUMPDEST PUSH2 0x59A JUMP JUMPDEST PUSH1 0x40 MLOAD PUSH2 0x19A SWAP7 SWAP6 SWAP5 SWAP4 SWAP3 SWAP2 SWAP1 PUSH2 0xB6F JUMP JUMPDEST PUSH1 0x40 MLOAD DUP1 SWAP2 SUB SWAP1 RETURN JUMPDEST CALLVALUE DUP1 ISZERO PUSH2 0x1AE JUMPI PUSH0 DUP1 REVERT JUMPDEST POP PUSH2 0x1B7 PUSH2 0x5FD JUMP JUMPDEST PUSH1 0x40 MLOAD PUSH2 0x1C4 SWAP2 SWAP1 PUSH2 0xB36 JUMP JUMPDEST PUSH1 0x40 MLOAD DUP1 SWAP2 SUB SWAP1 RETURN JUMPDEST PUSH2 0x1E7 PUSH1 0x4 DUP1 CALLDATASIZE SUB DUP2 ADD SWAP1 PUSH2 0x1E2 SWAP2 SWAP1 PUSH2 0xBCE JUMP JUMPDEST PUSH2 0x602 JUMP JUMPDEST STOP JUMPDEST CALLVALUE DUP1 ISZERO PUSH2 0x1F4 JUMPI PUSH0 DUP1 REVERT JUMPDEST POP PUSH2 0x20F PUSH1 0x4 DUP1 CALLDATASIZE SUB DUP2 ADD SWAP1 PUSH2 0x20A SWAP2 SWAP1 PUSH2 0xA44 JUMP JUMPDEST PUSH2 0x8C3 JUMP JUMPDEST STOP JUMPDEST PUSH0 PUSH1 0x4 PUSH0 DUP4 DUP2 MSTORE PUSH1 0x20 ADD SWAP1 DUP2 MSTORE PUSH1 0x20 ADD PUSH0 KECCAK256 SWAP1 POP DUP1 PUSH1 0x3 ADD SLOAD TIMESTAMP LT ISZERO PUSH2 0x26C JUMPI PUSH1 0x40 MLOAD PUSH32 0x8C379A000000000000000000000000000000000000000000000000000000000 DUP2 MSTORE PUSH1 0x4 ADD PUSH2 0x263 SWAP1 PUSH2 0xC78 JUMP JUMPDEST PUSH1 0x40 MLOAD DUP1 SWAP2 SUB SWAP1 REVERT JUMPDEST DUP1 PUSH1 0x1 ADD PUSH0 SWAP1 SLOAD SWAP1 PUSH2 0x100 EXP SWAP1 DIV PUSH20 0xFFFFFFFFFFFFFFFFFFFFFFFFFFFFFFFFFFFFFFFF AND PUSH20 0xFFFFFFFFFFFFFFFFFFFFFFFFFFFFFFFFFFFFFFFF AND CALLER PUSH20 0xFFFFFFFFFFFFFFFFFFFFFFFFFFFFFFFFFFFFFFFF AND EQ PUSH2 0x2FD JUMPI PUSH1 0x40 MLOAD PUSH32 0x8C379A000000000000000000000000000000000000000000000000000000000 DUP2 MSTORE PUSH1 0x4 ADD PUSH2 0x2F4 SWAP1 PUSH2 0xCE0 JUMP JUMPDEST PUSH1 0x40 MLOAD DUP1 SWAP2 SUB SWAP1 REVERT JUMPDEST PUSH0 DUP2 PUSH1 0x3 ADD SLOAD TIMESTAMP GT SWAP1 POP DUP1 ISZERO PUSH2 0x353 JUMPI PUSH1 0x2 SLOAD CALLVALUE LT ISZERO PUSH2 0x352 JUMPI PUSH1 0x40 MLOAD PUSH32 0x8C379A000000000000000000000000000000000000000000000000000000000 DUP2 MSTORE PUSH1 0x4 ADD PUSH2 0x349 SWAP1 PUSH2 0xD48 JUMP JUMPDEST PUSH1 0x40 MLOAD DUP1 SWAP2 SUB SWAP1 REVERT JUMPDEST JUMPDEST PUSH1 0x1 DUP3 PUSH1 0x4 ADD PUSH1 0x1 PUSH2 0x100 EXP DUP2 SLOAD DUP2 PUSH1 0xFF MUL NOT AND SWAP1 DUP4 ISZERO ISZERO MUL OR SWAP1 SSTORE POP PUSH0 PUSH1 0x3 PUSH0 DUP5 PUSH0 ADD SLOAD DUP2 MSTORE PUSH1 0x20 ADD SWAP1 DUP2 MSTORE PUSH1 0x20 ADD PUSH0 KECCAK256 PUSH1 0x3 ADD PUSH0 PUSH2 0x100 EXP DUP2 SLOAD DUP2 PUSH1 0xFF MUL NOT AND SWAP1 DUP4 ISZERO ISZERO MUL OR SWAP1 SSTORE POP PUSH32 0x9C15021C0CFEE72423F93DE70BDC0D624C928C6BFAB028005E59B0C968B9D06D DUP4 DUP4 PUSH0 ADD SLOAD CALLER DUP5 PUSH1 0x40 MLOAD PUSH2 0x3D6 SWAP5 SWAP4 SWAP3 SWAP2 SWAP1 PUSH2 0xD66 JUMP JUMPDEST PUSH1 0x40 MLOAD DUP1 SWAP2 SUB SWAP1 LOG1 POP POP POP JUMP JUMPDEST PUSH1 0x4 PUSH1 0x20 MSTORE DUP1 PUSH0 MSTORE PUSH1 0x40 PUSH0 KECCAK256 PUSH0 SWAP2 POP SWAP1 POP DUP1 PUSH0 ADD SLOAD SWAP1 DUP1 PUSH1 0x1 ADD PUSH0 SWAP1 SLOAD SWAP1 PUSH2 0x100 EXP SWAP1 DIV PUSH20 0xFFFFFFFFFFFFFFFFFFFFFFFFFFFFFFFFFFFFFFFF AND SWAP1 DUP1 PUSH1 0x2 ADD SLOAD SWAP1 DUP1 PUSH1 0x3 ADD SLOAD SWAP1 DUP1 PUSH1 0x4 ADD PUSH0 SWAP1 SLOAD SWAP1 PUSH2 0x100 EXP SWAP1 DIV PUSH1 0xFF AND SWAP1 DUP1 PUSH1 0x4 ADD PUSH1 0x1 SWAP1 SLOAD SWAP1 PUSH2 0x100 EXP SWAP1 DIV PUSH1 0xFF AND SWAP1 POP DUP7 JUMP JUMPDEST PUSH1 0x2 SLOAD DUP2 JUMP JUMPDEST PUSH0 DUP1 DUP2 SLOAD DUP1 SWAP3 SWAP2 SWAP1 PUSH2 0x46A SWAP1 PUSH2 0xDD6 JUMP JUMPDEST SWAP2 SWAP1 POP SSTORE POP PUSH1 0x40 MLOAD DUP1 PUSH1 0xC0 ADD PUSH1 0x40 MSTORE DUP1 PUSH0 SLOAD DUP2 MSTORE PUSH1 0x20 ADD CALLER PUSH20 0xFFFFFFFFFFFFFFFFFFFFFFFFFFFFFFFFFFFFFFFF AND DUP2 MSTORE PUSH1 0x20 ADD DUP3 DUP2 MSTORE PUSH1 0x20 ADD PUSH0 ISZERO ISZERO DUP2 MSTORE PUSH1 0x20 ADD PUSH0 DUP2 MSTORE PUSH1 0x20 ADD PUSH0 DUP2 MSTORE POP PUSH1 0x3 PUSH0 DUP1 SLOAD DUP2 MSTORE PUSH1 0x20 ADD SWAP1 DUP2 MSTORE PUSH1 0x20 ADD PUSH0 KECCAK256 PUSH0 DUP3 ADD MLOAD DUP2 PUSH0 ADD SSTORE PUSH1 0x20 DUP3 ADD MLOAD DUP2 PUSH1 0x1 ADD PUSH0 PUSH2 0x100 EXP DUP2 SLOAD DUP2 PUSH20 0xFFFFFFFFFFFFFFFFFFFFFFFFFFFFFFFFFFFFFFFF MUL NOT AND SWAP1 DUP4 PUSH20 0xFFFFFFFFFFFFFFFFFFFFFFFFFFFFFFFFFFFFFFFF AND MUL OR SWAP1 SSTORE POP PUSH1 0x40 DUP3 ADD MLOAD DUP2 PUSH1 0x2 ADD SSTORE PUSH1 0x60 DUP3 ADD MLOAD DUP2 PUSH1 0x3 ADD PUSH0 PUSH2 0x100 EXP DUP2 SLOAD DUP2 PUSH1 0xFF MUL NOT AND SWAP1 DUP4 ISZERO ISZERO MUL OR SWAP1 SSTORE POP PUSH1 0x80 DUP3 ADD MLOAD DUP2 PUSH1 0x4 ADD SSTORE PUSH1 0xA0 DUP3 ADD MLOAD DUP2 PUSH1 0x5 ADD SSTORE SWAP1 POP POP PUSH32 0xFB7546692669C78E8126BD1F18C25858A51745CADBE62DE4C52C410C4E1C4851 PUSH0 SLOAD CALLER DUP4 PUSH1 0x40 MLOAD PUSH2 0x589 SWAP4 SWAP3 SWAP2 SWAP1 PUSH2 0xE1D JUMP JUMPDEST PUSH1 0x40 MLOAD DUP1 SWAP2 SUB SWAP1 LOG1 POP JUMP JUMPDEST PUSH1 0x1 SLOAD DUP2 JUMP JUMPDEST PUSH1 0x3 PUSH1 0x20 MSTORE DUP1 PUSH0 MSTORE PUSH1 0x40 PUSH0 KECCAK256 PUSH0 SWAP2 POP SWAP1 POP DUP1 PUSH0 ADD SLOAD SWAP1 DUP1 PUSH1 0x1 ADD PUSH0 SWAP1 SLOAD SWAP1 PUSH2 0x100 EXP SWAP1 DIV PUSH20 0xFFFFFFFFFFFFFFFFFFFFFFFFFFFFFFFFFFFFFFFF AND SWAP1 DUP1 PUSH1 0x2 ADD SLOAD SWAP1 DUP1 PUSH1 0x3 ADD PUSH0 SWAP1 SLOAD SWAP1 PUSH2 0x100 EXP SWAP1 DIV PUSH1 0xFF AND SWAP1 DUP1 PUSH1 0x4 ADD SLOAD SWAP1 DUP1 PUSH1 0x5 ADD SLOAD SWAP1 POP DUP7 JUMP JUMPDEST PUSH0 SLOAD DUP2 JUMP JUMPDEST PUSH0 PUSH1 0x3 PUSH0 DUP6 DUP2 MSTORE PUSH1 0x20 ADD SWAP1 DUP2 MSTORE PUSH1 0x20 ADD PUSH0 KECCAK256 SWAP1 POP DUP1 PUSH1 0x3 ADD PUSH0 SWAP1 SLOAD SWAP1 PUSH2 0x100 EXP SWAP1 DIV PUSH1 0xFF AND ISZERO PUSH2 0x667 JUMPI PUSH1 0x40 MLOAD PUSH32 0x8C379A000000000000000000000000000000000000000000000000000000000 DUP2 MSTORE PUSH1 0x4 ADD PUSH2 0x65E SWAP1 PUSH2 0xE9C JUMP JUMPDEST PUSH1 0x40 MLOAD DUP1 SWAP2 SUB SWAP1 REVERT JUMPDEST PUSH3 0x15180 DUP4 DUP4 PUSH2 0x677 SWAP2 SWAP1 PUSH2 0xEBA JUMP JUMPDEST DUP3 PUSH1 0x2 ADD SLOAD PUSH2 0x686 SWAP2 SWAP1 PUSH2 0xEED JUMP JUMPDEST PUSH2 0x690 SWAP2 SWAP1 PUSH2 0xF5B JUMP JUMPDEST CALLVALUE LT ISZERO PUSH2 0x6D2 JUMPI PUSH1 0x40 MLOAD PUSH32 0x8C379A000000000000000000000000000000000000000000000000000000000 DUP2 MSTORE PUSH1 0x4 ADD PUSH2 0x6C9 SWAP1 PUSH2 0xFD5 JUMP JUMPDEST PUSH1 0x40 MLOAD DUP1 SWAP2 SUB SWAP1 REVERT JUMPDEST PUSH1 0x1 PUSH0 DUP2 SLOAD DUP1 SWAP3 SWAP2 SWAP1 PUSH2 0x6E4 SWAP1 PUSH2 0xDD6 JUMP JUMPDEST SWAP2 SWAP1 POP SSTORE POP PUSH1 0x40 MLOAD DUP1 PUSH1 0xC0 ADD PUSH1 0x40 MSTORE DUP1 DUP6 DUP2 MSTORE PUSH1 0x20 ADD CALLER PUSH20 0xFFFFFFFFFFFFFFFFFFFFFFFFFFFFFFFFFFFFFFFF AND DUP2 MSTORE PUSH1 0x20 ADD DUP5 DUP2 MSTORE PUSH1 0x20 ADD DUP4 DUP2 MSTORE PUSH1 0x20 ADD PUSH0 ISZERO ISZERO DUP2 MSTORE PUSH1 0x20 ADD PUSH0 ISZERO ISZERO DUP2 MSTORE POP PUSH1 0x4 PUSH0 PUSH1 0x1 SLOAD DUP2 MSTORE PUSH1 0x20 ADD SWAP1 DUP2 MSTORE PUSH1 0x20 ADD PUSH0 KECCAK256 PUSH0 DUP3 ADD MLOAD DUP2 PUSH0 ADD SSTORE PUSH1 0x20 DUP3 ADD MLOAD DUP2 PUSH1 0x1 ADD PUSH0 PUSH2 0x100 EXP DUP2 SLOAD DUP2 PUSH20 0xFFFFFFFFFFFFFFFFFFFFFFFFFFFFFFFFFFFFFFFF MUL NOT AND SWAP1 DUP4 PUSH20 0xFFFFFFFFFFFFFFFFFFFFFFFFFFFFFFFFFFFFFFFF AND MUL OR SWAP1 SSTORE POP PUSH1 0x40 DUP3 ADD MLOAD DUP2 PUSH1 0x2 ADD SSTORE PUSH1 0x60 DUP3 ADD MLOAD DUP2 PUSH1 0x3 ADD SSTORE PUSH1 0x80 DUP3 ADD MLOAD DUP2 PUSH1 0x4 ADD PUSH0 PUSH2 0x100 EXP DUP2 SLOAD DUP2 PUSH1 0xFF MUL NOT AND SWAP1 DUP4 ISZERO ISZERO MUL OR SWAP1 SSTORE POP PUSH1 0xA0 DUP3 ADD MLOAD DUP2 PUSH1 0x4 ADD PUSH1 0x1 PUSH2 0x100 EXP DUP2 SLOAD DUP2 PUSH1 0xFF MUL NOT AND SWAP1 DUP4 ISZERO ISZERO MUL OR SWAP1 SSTORE POP SWAP1 POP POP PUSH1 0x1 DUP2 PUSH1 0x3 ADD PUSH0 PUSH2 0x100 EXP DUP2 SLOAD DUP2 PUSH1 0xFF MUL NOT AND SWAP1 DUP4 ISZERO ISZERO MUL OR SWAP1 SSTORE POP DUP3 DUP2 PUSH1 0x4 ADD DUP2 SWAP1 SSTORE POP DUP2 DUP2 PUSH1 0x5 ADD DUP2 SWAP1 SSTORE POP DUP1 PUSH1 0x1 ADD PUSH0 SWAP1 SLOAD SWAP1 PUSH2 0x100 EXP SWAP1 DIV PUSH20 0xFFFFFFFFFFFFFFFFFFFFFFFFFFFFFFFFFFFFFFFF AND PUSH20 0xFFFFFFFFFFFFFFFFFFFFFFFFFFFFFFFFFFFFFFFF AND PUSH2 0x8FC CALLVALUE SWAP1 DUP2 ISZERO MUL SWAP1 PUSH1 0x40 MLOAD PUSH0 PUSH1 0x40 MLOAD DUP1 DUP4 SUB DUP2 DUP6 DUP9 DUP9 CALL SWAP4 POP POP POP POP ISZERO DUP1 ISZERO PUSH2 0x87B JUMPI RETURNDATASIZE PUSH0 DUP1 RETURNDATACOPY RETURNDATASIZE PUSH0 REVERT JUMPDEST POP PUSH32 0xE47D3C268F587E43FFA5940B3B439D9D2812238E799CB640F517D54AE2074C6 PUSH1 0x1 SLOAD DUP6 CALLER DUP7 DUP7 PUSH1 0x40 MLOAD PUSH2 0x8B5 SWAP6 SWAP5 SWAP4 SWAP3 SWAP2 SWAP1 PUSH2 0xFF3 JUMP JUMPDEST PUSH1 0x40 MLOAD DUP1 SWAP2 SUB SWAP1 LOG1 POP POP POP POP JUMP JUMPDEST PUSH0 PUSH1 0x4 PUSH0 DUP4 DUP2 MSTORE PUSH1 0x20 ADD SWAP1 DUP2 MSTORE PUSH1 0x20 ADD PUSH0 KECCAK256 SWAP1 POP DUP1 PUSH1 0x2 ADD SLOAD TIMESTAMP LT ISZERO PUSH2 0x91E JUMPI PUSH1 0x40 MLOAD PUSH32 0x8C379A000000000000000000000000000000000000000000000000000000000 DUP2 MSTORE PUSH1 0x4 ADD PUSH2 0x915 SWAP1 PUSH2 0x108E JUMP JUMPDEST PUSH1 0x40 MLOAD DUP1 SWAP2 SUB SWAP1 REVERT JUMPDEST DUP1 PUSH1 0x1 ADD PUSH0 SWAP1 SLOAD SWAP1 PUSH2 0x100 EXP SWAP1 DIV PUSH20 0xFFFFFFFFFFFFFFFFFFFFFFFFFFFFFFFFFFFFFFFF AND PUSH20 0xFFFFFFFFFFFFFFFFFFFFFFFFFFFFFFFFFFFFFFFF AND CALLER PUSH20 0xFFFFFFFFFFFFFFFFFFFFFFFFFFFFFFFFFFFFFFFF AND EQ PUSH2 0x9AF JUMPI PUSH1 0x40 MLOAD PUSH32 0x8C379A000000000000000000000000000000000000000000000000000000000 DUP2 MSTORE PUSH1 0x4 ADD PUSH2 0x9A6 SWAP1 PUSH2 0x10F6 JUMP JUMPDEST PUSH1 0x40 MLOAD DUP1 SWAP2 SUB SWAP1 REVERT JUMPDEST PUSH1 0x1 DUP2 PUSH1 0x4 ADD PUSH0 PUSH2 0x100 EXP DUP2 SLOAD DUP2 PUSH1 0xFF MUL NOT AND SWAP1 DUP4 ISZERO ISZERO MUL OR SWAP1 SSTORE POP PUSH32 0x957A7D05A0DB579961310818480BC052BB358945E846C0948C1E0691CF43DC44 DUP3 DUP3 PUSH0 ADD SLOAD CALLER PUSH1 0x40 MLOAD PUSH2 0xA01 SWAP4 SWAP3 SWAP2 SWAP1 PUSH2 0x1114 JUMP JUMPDEST PUSH1 0x40 MLOAD DUP1 SWAP2 SUB SWAP1 LOG1 POP POP JUMP JUMPDEST PUSH0 DUP1 REVERT JUMPDEST PUSH0 DUP2 SWAP1 POP SWAP2 SWAP1 POP JUMP JUMPDEST PUSH2 0xA23 DUP2 PUSH2 0xA11 JUMP JUMPDEST DUP2 EQ PUSH2 0xA2D JUMPI PUSH0 DUP1 REVERT JUMPDEST POP JUMP JUMPDEST PUSH0 DUP2 CALLDATALOAD SWAP1 POP PUSH2 0xA3E DUP2 PUSH2 0xA1A JUMP JUMPDEST SWAP3 SWAP2 POP POP JUMP JUMPDEST PUSH0 PUSH1 0x20 DUP3 DUP5 SUB SLT ISZERO PUSH2 0xA59 JUMPI PUSH2 0xA58 PUSH2 0xA0D JUMP JUMPDEST JUMPDEST PUSH0 PUSH2 0xA66 DUP5 DUP3 DUP6 ADD PUSH2 0xA30 JUMP JUMPDEST SWAP2 POP POP SWAP3 SWAP2 POP POP JUMP JUMPDEST PUSH2 0xA78 DUP2 PUSH2 0xA11 JUMP JUMPDEST DUP3 MSTORE POP POP JUMP JUMPDEST PUSH0 PUSH20 0xFFFFFFFFFFFFFFFFFFFFFFFFFFFFFFFFFFFFFFFF DUP3 AND SWAP1 POP SWAP2 SWAP1 POP JUMP JUMPDEST PUSH0 PUSH2 0xAA7 DUP3 PUSH2 0xA7E JUMP JUMPDEST SWAP1 POP SWAP2 SWAP1 POP JUMP JUMPDEST PUSH2 0xAB7 DUP2 PUSH2 0xA9D JUMP JUMPDEST DUP3 MSTORE POP POP JUMP JUMPDEST PUSH0 DUP2 ISZERO ISZERO SWAP1 POP SWAP2 SWAP1 POP JUMP JUMPDEST PUSH2 0xAD1 DUP2 PUSH2 0xABD JUMP JUMPDEST DUP3 MSTORE POP POP JUMP JUMPDEST PUSH0 PUSH1 0xC0 DUP3 ADD SWAP1 POP PUSH2 0xAEA PUSH0 DUP4 ADD DUP10 PUSH2 0xA6F JUMP JUMPDEST PUSH2 0xAF7 PUSH1 0x20 DUP4 ADD DUP9 PUSH2 0xAAE JUMP JUMPDEST PUSH2 0xB04 PUSH1 0x40 DUP4 ADD DUP8 PUSH2 0xA6F JUMP JUMPDEST PUSH2 0xB11 PUSH1 0x60 DUP4 ADD DUP7 PUSH2 0xA6F JUMP JUMPDEST PUSH2 0xB1E PUSH1 0x80 DUP4 ADD DUP6 PUSH2 0xAC8 JUMP JUMPDEST PUSH2 0xB2B PUSH1 0xA0 DUP4 ADD DUP5 PUSH2 0xAC8 JUMP JUMPDEST SWAP8 SWAP7 POP POP POP POP POP POP POP JUMP JUMPDEST PUSH0 PUSH1 0x20 DUP3 ADD SWAP1 POP PUSH2 0xB49 PUSH0 DUP4 ADD DUP5 PUSH2 0xA6F JUMP JUMPDEST SWAP3 SWAP2 POP POP JUMP JUMPDEST PUSH0 PUSH2 0xB59 DUP3 PUSH2 0xA7E JUMP JUMPDEST SWAP1 POP SWAP2 SWAP1 POP JUMP JUMPDEST PUSH2 0xB69 DUP2 PUSH2 0xB4F JUMP JUMPDEST DUP3 MSTORE POP POP JUMP JUMPDEST PUSH0 PUSH1 0xC0 DUP3 ADD SWAP1 POP PUSH2 0xB82 PUSH0 DUP4 ADD DUP10 PUSH2 0xA6F JUMP JUMPDEST PUSH2 0xB8F PUSH1 0x20 DUP4 ADD DUP9 PUSH2 0xB60 JUMP JUMPDEST PUSH2 0xB9C PUSH1 0x40 DUP4 ADD DUP8 PUSH2 0xA6F JUMP JUMPDEST PUSH2 0xBA9 PUSH1 0x60 DUP4 ADD DUP7 PUSH2 0xAC8 JUMP JUMPDEST PUSH2 0xBB6 PUSH1 0x80 DUP4 ADD DUP6 PUSH2 0xA6F JUMP JUMPDEST PUSH2 0xBC3 PUSH1 0xA0 DUP4 ADD DUP5 PUSH2 0xA6F JUMP JUMPDEST SWAP8 SWAP7 POP POP POP POP POP POP POP JUMP JUMPDEST PUSH0 DUP1 PUSH0 PUSH1 0x60 DUP5 DUP7 SUB SLT ISZERO PUSH2 0xBE5 JUMPI PUSH2 0xBE4 PUSH2 0xA0D JUMP JUMPDEST JUMPDEST PUSH0 PUSH2 0xBF2 DUP7 DUP3 DUP8 ADD PUSH2 0xA30 JUMP JUMPDEST SWAP4 POP POP PUSH1 0x20 PUSH2 0xC03 DUP7 DUP3 DUP8 ADD PUSH2 0xA30 JUMP JUMPDEST SWAP3 POP POP PUSH1 0x40 PUSH2 0xC14 DUP7 DUP3 DUP8 ADD PUSH2 0xA30 JUMP JUMPDEST SWAP2 POP POP SWAP3 POP SWAP3 POP SWAP3 JUMP JUMPDEST PUSH0 DUP3 DUP3 MSTORE PUSH1 0x20 DUP3 ADD SWAP1 POP SWAP3 SWAP2 POP POP JUMP JUMPDEST PUSH32 0x546F6F206561726C7920746F20636865636B206F757400000000000000000000 PUSH0 DUP3 ADD MSTORE POP JUMP JUMPDEST PUSH0 PUSH2 0xC62 PUSH1 0x16 DUP4 PUSH2 0xC1E JUMP JUMPDEST SWAP2 POP PUSH2 0xC6D DUP3 PUSH2 0xC2E JUMP JUMPDEST PUSH1 0x20 DUP3 ADD SWAP1 POP SWAP2 SWAP1 POP JUMP JUMPDEST PUSH0 PUSH1 0x20 DUP3 ADD SWAP1 POP DUP2 DUP2 SUB PUSH0 DUP4 ADD MSTORE PUSH2 0xC8F DUP2 PUSH2 0xC56 JUMP JUMPDEST SWAP1 POP SWAP2 SWAP1 POP JUMP JUMPDEST PUSH32 0x4F6E6C792072656E7465722063616E20636865636B206F757400000000000000 PUSH0 DUP3 ADD MSTORE POP JUMP JUMPDEST PUSH0 PUSH2 0xCCA PUSH1 0x19 DUP4 PUSH2 0xC1E JUMP JUMPDEST SWAP2 POP PUSH2 0xCD5 DUP3 PUSH2 0xC96 JUMP JUMPDEST PUSH1 0x20 DUP3 ADD SWAP1 POP SWAP2 SWAP1 POP JUMP JUMPDEST PUSH0 PUSH1 0x20 DUP3 ADD SWAP1 POP DUP2 DUP2 SUB PUSH0 DUP4 ADD MSTORE PUSH2 0xCF7 DUP2 PUSH2 0xCBE JUMP JUMPDEST SWAP1 POP SWAP2 SWAP1 POP JUMP JUMPDEST PUSH32 0x4C61746520636865636B6F75742066696E652069732072657175697265640000 PUSH0 DUP3 ADD MSTORE POP JUMP JUMPDEST PUSH0 PUSH2 0xD32 PUSH1 0x1E DUP4 PUSH2 0xC1E JUMP JUMPDEST SWAP2 POP PUSH2 0xD3D DUP3 PUSH2 0xCFE JUMP JUMPDEST PUSH1 0x20 DUP3 ADD SWAP1 POP SWAP2 SWAP1 POP JUMP JUMPDEST PUSH0 PUSH1 0x20 DUP3 ADD SWAP1 POP DUP2 DUP2 SUB PUSH0 DUP4 ADD MSTORE PUSH2 0xD5F DUP2 PUSH2 0xD26 JUMP JUMPDEST SWAP1 POP SWAP2 SWAP1 POP JUMP JUMPDEST PUSH0 PUSH1 0x80 DUP3 ADD SWAP1 POP PUSH2 0xD79 PUSH0 DUP4 ADD DUP8 PUSH2 0xA6F JUMP JUMPDEST PUSH2 0xD86 PUSH1 0x20 DUP4 ADD DUP7 PUSH2 0xA6F JUMP JUMPDEST PUSH2 0xD93 PUSH1 0x40 DUP4 ADD DUP6 PUSH2 0xAAE JUMP JUMPDEST PUSH2 0xDA0 PUSH1 0x60 DUP4 ADD DUP5 PUSH2 0xAC8 JUMP JUMPDEST SWAP6 SWAP5 POP POP POP POP POP JUMP JUMPDEST PUSH32 0x4E487B7100000000000000000000000000000000000000000000000000000000 PUSH0 MSTORE PUSH1 0x11 PUSH1 0x4 MSTORE PUSH1 0x24 PUSH0 REVERT JUMPDEST PUSH0 PUSH2 0xDE0 DUP3 PUSH2 0xA11 JUMP JUMPDEST SWAP2 POP PUSH32 0xFFFFFFFFFFFFFFFFFFFFFFFFFFFFFFFFFFFFFFFFFFFFFFFFFFFFFFFFFFFFFFFF DUP3 SUB PUSH2 0xE12 JUMPI PUSH2 0xE11 PUSH2 0xDA9 JUMP JUMPDEST JUMPDEST PUSH1 0x1 DUP3 ADD SWAP1 POP SWAP2 SWAP1 POP JUMP JUMPDEST PUSH0 PUSH1 0x60 DUP3 ADD SWAP1 POP PUSH2 0xE30 PUSH0 DUP4 ADD DUP7 PUSH2 0xA6F JUMP JUMPDEST PUSH2 0xE3D PUSH1 0x20 DUP4 ADD DUP6 PUSH2 0xAAE JUMP JUMPDEST PUSH2 0xE4A PUSH1 0x40 DUP4 ADD DUP5 PUSH2 0xA6F JUMP JUMPDEST SWAP5 SWAP4 POP POP POP POP JUMP JUMPDEST PUSH32 0x486F75736520697320616C726561647920626F6F6B6564000000000000000000 PUSH0 DUP3 ADD MSTORE POP JUMP JUMPDEST PUSH0 PUSH2 0xE86 PUSH1 0x17 DUP4 PUSH2 0xC1E JUMP JUMPDEST SWAP2 POP PUSH2 0xE91 DUP3 PUSH2 0xE52 JUMP JUMPDEST PUSH1 0x20 DUP3 ADD SWAP1 POP SWAP2 SWAP1 POP JUMP JUMPDEST PUSH0 PUSH1 0x20 DUP3 ADD SWAP1 POP DUP2 DUP2 SUB PUSH0 DUP4 ADD MSTORE PUSH2 0xEB3 DUP2 PUSH2 0xE7A JUMP JUMPDEST SWAP1 POP SWAP2 SWAP1 POP JUMP JUMPDEST PUSH0 PUSH2 0xEC4 DUP3 PUSH2 0xA11 JUMP JUMPDEST SWAP2 POP PUSH2 0xECF DUP4 PUSH2 0xA11 JUMP JUMPDEST SWAP3 POP DUP3 DUP3 SUB SWAP1 POP DUP2 DUP2 GT ISZERO PUSH2 0xEE7 JUMPI PUSH2 0xEE6 PUSH2 0xDA9 JUMP JUMPDEST JUMPDEST SWAP3 SWAP2 POP POP JUMP JUMPDEST PUSH0 PUSH2 0xEF7 DUP3 PUSH2 0xA11 JUMP JUMPDEST SWAP2 POP PUSH2 0xF02 DUP4 PUSH2 0xA11 JUMP JUMPDEST SWAP3 POP DUP3 DUP3 MUL PUSH2 0xF10 DUP2 PUSH2 0xA11 JUMP JUMPDEST SWAP2 POP DUP3 DUP3 DIV DUP5 EQ DUP4 ISZERO OR PUSH2 0xF27 JUMPI PUSH2 0xF26 PUSH2 0xDA9 JUMP JUMPDEST JUMPDEST POP SWAP3 SWAP2 POP POP JUMP JUMPDEST PUSH32 0x4E487B7100000000000000000000000000000000000000000000000000000000 PUSH0 MSTORE PUSH1 0x12 PUSH1 0x4 MSTORE PUSH1 0x24 PUSH0 REVERT JUMPDEST PUSH0 PUSH2 0xF65 DUP3 PUSH2 0xA11 JUMP JUMPDEST SWAP2 POP PUSH2 0xF70 DUP4 PUSH2 0xA11 JUMP JUMPDEST SWAP3 POP DUP3 PUSH2 0xF80 JUMPI PUSH2 0xF7F PUSH2 0xF2E JUMP JUMPDEST JUMPDEST DUP3 DUP3 DIV SWAP1 POP SWAP3 SWAP2 POP POP JUMP JUMPDEST PUSH32 0x496E73756666696369656E74207061796D656E74000000000000000000000000 PUSH0 DUP3 ADD MSTORE POP JUMP JUMPDEST PUSH0 PUSH2 0xFBF PUSH1 0x14 DUP4 PUSH2 0xC1E JUMP JUMPDEST SWAP2 POP PUSH2 0xFCA DUP3 PUSH2 0xF8B JUMP JUMPDEST PUSH1 0x20 DUP3 ADD SWAP1 POP SWAP2 SWAP1 POP JUMP JUMPDEST PUSH0 PUSH1 0x20 DUP3 ADD SWAP1 POP DUP2 DUP2 SUB PUSH0 DUP4 ADD MSTORE PUSH2 0xFEC DUP2 PUSH2 0xFB3 JUMP JUMPDEST SWAP1 POP SWAP2 SWAP1 POP JUMP JUMPDEST PUSH0 PUSH1 0xA0 DUP3 ADD SWAP1 POP PUSH2 0x1006 PUSH0 DUP4 ADD DUP9 PUSH2 0xA6F JUMP JUMPDEST PUSH2 0x1013 PUSH1 0x20 DUP4 ADD DUP8 PUSH2 0xA6F JUMP JUMPDEST PUSH2 0x1020 PUSH1 0x40 DUP4 ADD DUP7 PUSH2 0xAAE JUMP JUMPDEST PUSH2 0x102D PUSH1 0x60 DUP4 ADD DUP6 PUSH2 0xA6F JUMP JUMPDEST PUSH2 0x103A PUSH1 0x80 DUP4 ADD DUP5 PUSH2 0xA6F JUMP JUMPDEST SWAP7 SWAP6 POP POP POP POP POP POP JUMP JUMPDEST PUSH32 0x546F6F206561726C7920746F20636865636B20696E0000000000000000000000 PUSH0 DUP3 ADD MSTORE POP JUMP JUMPDEST PUSH0 PUSH2 0x1078 PUSH1 0x15 DUP4 PUSH2 0xC1E JUMP JUMPDEST SWAP2 POP PUSH2 0x1083 DUP3 PUSH2 0x1044 JUMP JUMPDEST PUSH1 0x20 DUP3 ADD SWAP1 POP SWAP2 SWAP1 POP JUMP JUMPDEST PUSH0 PUSH1 0x20 DUP3 ADD SWAP1 POP DUP2 DUP2 SUB PUSH0 DUP4 ADD MSTORE PUSH2 0x10A5 DUP2 PUSH2 0x106C JUMP JUMPDEST SWAP1 POP SWAP2 SWAP1 POP JUMP JUMPDEST PUSH32 0x4F6E6C792072656E7465722063616E20636865636B20696E0000000000000000 PUSH0 DUP3 ADD MSTORE POP JUMP JUMPDEST PUSH0 PUSH2 0x10E0 PUSH1 0x18 DUP4 PUSH2 0xC1E JUMP JUMPDEST SWAP2 POP PUSH2 0x10EB DUP3 PUSH2 0x10AC JUMP JUMPDEST PUSH1 0x20 DUP3 ADD SWAP1 POP SWAP2 SWAP1 POP JUMP JUMPDEST PUSH0 PUSH1 0x20 DUP3 ADD SWAP1 POP DUP2 DUP2 SUB PUSH0 DUP4 ADD MSTORE PUSH2 0x110D DUP2 PUSH2 0x10D4 JUMP JUMPDEST SWAP1 POP SWAP2 SWAP1 POP JUMP JUMPDEST PUSH0 PUSH1 0x60 DUP3 ADD SWAP1 POP PUSH2 0x1127 PUSH0 DUP4 ADD DUP7 PUSH2 0xA6F JUMP JUMPDEST PUSH2 0x1134 PUSH1 0x20 DUP4 ADD DUP6 PUSH2 0xA6F JUMP JUMPDEST PUSH2 0x1141 PUSH1 0x40 DUP4 ADD DUP5 PUSH2 0xAAE JUMP JUMPDEST SWAP5 SWAP4 POP POP POP POP JUMP INVALID LOG2 PUSH5 0x6970667358 0x22 SLT KECCAK256 PUSH28 0x4839674517758B1BC244B62D98A423506CFDA3E06675CADF44C4D483 0xD1 0xE0 0xCC PUSH5 0x736F6C6343 STOP ADDMOD NOT STOP CALLER "
				},
				"gasEstimates": {
					"creation": {
						"codeDepositCost": "895800",
						"executionCost": "33043",
						"totalCost": "928843"
					},
					"external": {
						"bookHouse(uint256,uint256,uint256)": "infinite",
						"bookingCount()": "2425",
						"bookings(uint256)": "infinite",
						"checkIn(uint256)": "infinite",
						"checkOut(uint256)": "infinite",
						"houseCount()": "2468",
						"houses(uint256)": "infinite",
						"lateCheckoutFine()": "2470",
						"listHouse(uint256)": "infinite"
					}
				},
				"methodIdentifiers": {
					"bookHouse(uint256,uint256,uint256)": "d668c67b",
					"bookingCount()": "6d759172",
					"bookings(uint256)": "1dab301e",
					"checkIn(uint256)": "e95a644f",
					"checkOut(uint256)": "1bd2eeee",
					"houseCount()": "bd74f8b1",
					"houses(uint256)": "aeda852f",
					"lateCheckoutFine()": "28fb688e",
					"listHouse(uint256)": "29363cdc"
				}
			},
			"storageLayout": {
				"storage": [
					{
						"astId": 30,
						"contract": "BnB.sol:Airbnb",
						"label": "houseCount",
						"offset": 0,
						"slot": "0",
						"type": "t_uint256"
					},
					{
						"astId": 33,
						"contract": "BnB.sol:Airbnb",
						"label": "bookingCount",
						"offset": 0,
						"slot": "1",
						"type": "t_uint256"
					},
					{
						"astId": 36,
						"contract": "BnB.sol:Airbnb",
						"label": "lateCheckoutFine",
						"offset": 0,
						"slot": "2",
						"type": "t_uint256"
					},
					{
						"astId": 41,
						"contract": "BnB.sol:Airbnb",
						"label": "houses",
						"offset": 0,
						"slot": "3",
						"type": "t_mapping(t_uint256,t_struct(House)14_storage)"
					},
					{
						"astId": 46,
						"contract": "BnB.sol:Airbnb",
						"label": "bookings",
						"offset": 0,
						"slot": "4",
						"type": "t_mapping(t_uint256,t_struct(Booking)27_storage)"
					}
				],
				"types": {
					"t_address": {
						"encoding": "inplace",
						"label": "address",
						"numberOfBytes": "20"
					},
					"t_address_payable": {
						"encoding": "inplace",
						"label": "address payable",
						"numberOfBytes": "20"
					},
					"t_bool": {
						"encoding": "inplace",
						"label": "bool",
						"numberOfBytes": "1"
					},
					"t_mapping(t_uint256,t_struct(Booking)27_storage)": {
						"encoding": "mapping",
						"key": "t_uint256",
						"label": "mapping(uint256 => struct Airbnb.Booking)",
						"numberOfBytes": "32",
						"value": "t_struct(Booking)27_storage"
					},
					"t_mapping(t_uint256,t_struct(House)14_storage)": {
						"encoding": "mapping",
						"key": "t_uint256",
						"label": "mapping(uint256 => struct Airbnb.House)",
						"numberOfBytes": "32",
						"value": "t_struct(House)14_storage"
					},
					"t_struct(Booking)27_storage": {
						"encoding": "inplace",
						"label": "struct Airbnb.Booking",
						"members": [
							{
								"astId": 16,
								"contract": "BnB.sol:Airbnb",
								"label": "houseId",
								"offset": 0,
								"slot": "0",
								"type": "t_uint256"
							},
							{
								"astId": 18,
								"contract": "BnB.sol:Airbnb",
								"label": "renter",
								"offset": 0,
								"slot": "1",
								"type": "t_address"
							},
							{
								"astId": 20,
								"contract": "BnB.sol:Airbnb",
								"label": "startDate",
								"offset": 0,
								"slot": "2",
								"type": "t_uint256"
							},
							{
								"astId": 22,
								"contract": "BnB.sol:Airbnb",
								"label": "endDate",
								"offset": 0,
								"slot": "3",
								"type": "t_uint256"
							},
							{
								"astId": 24,
								"contract": "BnB.sol:Airbnb",
								"label": "isCheckedIn",
								"offset": 0,
								"slot": "4",
								"type": "t_bool"
							},
							{
								"astId": 26,
								"contract": "BnB.sol:Airbnb",
								"label": "isCheckedOut",
								"offset": 1,
								"slot": "4",
								"type": "t_bool"
							}
						],
						"numberOfBytes": "160"
					},
					"t_struct(House)14_storage": {
						"encoding": "inplace",
						"label": "struct Airbnb.House",
						"members": [
							{
								"astId": 3,
								"contract": "BnB.sol:Airbnb",
								"label": "id",
								"offset": 0,
								"slot": "0",
								"type": "t_uint256"
							},
							{
								"astId": 5,
								"contract": "BnB.sol:Airbnb",
								"label": "owner",
								"offset": 0,
								"slot": "1",
								"type": "t_address_payable"
							},
							{
								"astId": 7,
								"contract": "BnB.sol:Airbnb",
								"label": "pricePerDay",
								"offset": 0,
								"slot": "2",
								"type": "t_uint256"
							},
							{
								"astId": 9,
								"contract": "BnB.sol:Airbnb",
								"label": "isBooked",
								"offset": 0,
								"slot": "3",
								"type": "t_bool"
							},
							{
								"astId": 11,
								"contract": "BnB.sol:Airbnb",
								"label": "checkinTime",
								"offset": 0,
								"slot": "4",
								"type": "t_uint256"
							},
							{
								"astId": 13,
								"contract": "BnB.sol:Airbnb",
								"label": "checkoutTime",
								"offset": 0,
								"slot": "5",
								"type": "t_uint256"
							}
						],
						"numberOfBytes": "192"
					},
					"t_uint256": {
						"encoding": "inplace",
						"label": "uint256",
						"numberOfBytes": "32"
					}
				}
			},
			"userdoc": {
				"kind": "user",
				"methods": {},
				"version": 1
			}
		}
	}
}